:400000000010002011000000190200001902000080B500AF00F06EFA00F008F980B500AF104B104A12688021C9020A431A60202001F016FB0C4B0D4A1A600D4B10221A6068
:400040000C4B802212061A60064B802212031A60094B0A4A1A600A4B00221A60C046BD4680BDC04600010B4004010B40060000800802024008010B4000000240160000807A
:400080000C020B4080B582B000AF72B6FB1D00221A7022E0FB1D1A7813005B009B185B00294A9B183B603B681A78597809020A43997809040A43DB781B06134318003B68AE
:4000C0001A795B791B0213439BB2190000F08EF8FB1D1A78FB1D01321A70FB1D1B78012BD8D91A4BEE2212021A60194B99221A60184B992212041A60174B992212041A604C
:40010000164A164B1B78DBB206210B43DBB21370134B08221A60134BC02212011A60124BD82212011A60114B02221A60104B31221A60104B02221A60FFF770FF00F066F8D8
:40014000C046BD4602B080BD581D00000C0001401000014000500F4030500F4000700F4000000440080004400803044000040440080404401804044010B5064C2378002B93
:4001800007D1054B002B02D0044800E000BF0123237010BD5801002000000000541D0000084B10B5002B03D00749084800E000BF07480368002B00D110BD064B002BFBD0A2
:4001C0009847F9E7000000005C010020541D0000D00000200000000080B500AF62B6002000F0ACF800F02AF9FEE7C04680B582B000AF786039603A687B680021180001F07E
:400200009CFDC046BD4602B080BDC04680B500AFC046BD4680BDC04680B500AF01F058FD03001B680C2B00D1FEE7FEE780B586B000AF224B7B61224B3B61204B7B6135E0AD
:400240003B691B68FB603B695B68BB603B699B683B6000237B600CE0FB681A68BB681A60BB680433BB60FB680433FB607B6804337B607A683B689A42EED13B69DB683B60CB
:4002800000237B6008E0BB6800221A60BB680433BB607B6804337B607A683B689A42F2D13B6910333B617B69013B7B617B69002BC6D101F013FDFFF78FFFFEE7010000007B
:4002C000201E000080B582B000AF00237B600FE07B68032B04D8144B7A689200D35800E0124B134A796889008B507B6801337B607B682F2BECD9FFF7C5FE0E4B00221A6051
:400300000D4B1B68002B02D10B4B00221A608023DB058022D205126801210A431A60C046BD4602B080BDC046000000001902000000000020C8000020C000002080B584B029
:4003400000AF0200FB1D1A700F4B1B68DAB20F23FB1808218A431A70FB1D1B78DB00DBB208221340D9B20F23FB180F22BA1812780A431A70044B0F22BA1812781A60C046DC
:40038000BD4604B080BDC0460000044080B584B000AF78600A00BB1C1A800E23FB1800221A8012E0BB1C1B88013B7A68D3181B7899B20E23FB180E22BA1812888A181A8025
:4003C000BB1C1A88BB1C013A1A80BB1C1B88002BE8D10E23FB181B885B429BB21800BD4604B080BD80B586B000AFF860B9607A601723FB1800221A70FB68002B14D00020AD
:4004000001F020FA10E07B68013B7B60FA68BB68D2187B68D3181B78D9B21723FB181722BA1812788A181A707B68002BEBD11723FB181B781800BD4606B080BD90B583B02E
:4004400000AF06237B60002000F086F8031E01D100237B601E4B1B681B68C03BFC1C1A00C0210020FFF7BEFF03002370194B1B681A78FB1CF91C09788A1A1A70FB1CFA1CE3
:40048000127852421A70134B1B681B78FA1C12789A4204D10E4B1B681B68002B02D1002001F0D0F90C4B1B68402B02D07B68002B05D0094B00221A60002000F0BBF81420B7
:4004C00000F0B8F800F00AF8C046BD4603B090BDD8000020D4000020C000002080B500AF034B80221A6001F0B9F9C046BD4680BDC000002080B582B000AF144B1B68102254
:40050000134002D1124B00221A60114B1B68802B17D1FB1D00221A700D4B00221A60FB1D1B781900022000F093FD031E09D0FB1D1B781900022000F08BFD0300180000F0A9
:4005400009F8C046BD4602B080BDC04600030B40C00000200047C04690B587B000AF0200FB1D1A70FB1D1B781900032000F070FD03000133DC01FB1D1B781900042000F002
:4005800067FD0300E318FB601323FB1800221A701223FB1800221A70FB1D1B781900032000F056FD03000133DB017B611FE07A690B23FB1812781A700B23FB181B78002B46
:4005C00008D00B23FB181B78FF2B03D01323FB1801221A701223FB181222B9180B22BA18097812788A181A707B6901337B617A69FB689A42DBD31223FB181222BA1812783D
:4006000052421A701223FB181C78FB1D1B781900012000F01DFD03009C4204D11323FB181B78002B01D1062300E000231800BD4607B090BD90B5DA4CA54400AF0200D94BCE
:40064000AA2189008C46BC4463441A70D64BFB1800221A80D54BFB180A221A70A8239B00FB1800221A70D24BFB1800221A8001F041F962B6CF4BFB1800221A70C94BAA223D
:4006800092009446BC4463441B78002B07D0C54BAA2292009446BC4463441B7800E0FF23A0229200BC1896225100AA225200B818220001F02FF90300A5229200BA18136013
:4006C000B84BAA2292009446BC4463441B78002B06D0B64BFB181A78B44BFB18013A1A70B24BFB181B78002B05D0A5239B00FB181B68002BC2D1A5239B00FB181B68002B89
:4007000001D000F016FCA0239B00FB181B88062B08D9A94BAA2292009446BC4463441B78012B04D0A34BFB1804221A7073E0A24BAA2292009446BC446344DB789BB21B02CD
:4007400099B29D4BAA2292009446BC4463449B789AB2954BFB180A431A80934BFB181B880733A0229200BA181288934207D88E4BFB181B88DA1D96235B009A4204D98D4BC1
:40078000FB1803221A7046E0874BFB181B880533894AAA2189008C46BC446244D35C9BB21B0299B2804BFB181B880433824AAA2080008446BC446244D35C9AB27F4BFB1878
:4007C0000A431A80784BFB181B8806337A4AAA2189008C46BC446244D35C172B04D0754BFB1804221A7016E06F4BFB181B8804339AB2AA235B00FB1811001800FFF7C6FD02
:4008000003001A006D4BFB181B88934203D0694BFB1808221A706A4BFB1800221A80654BFB181B78002B00D076E3664BFB18624AAA2189008C46BC44624412791A705D4BE3
:40084000FB1804221A705C4BAA2292009446BC4463445B78313B0A2B00D9BFE29A005A4BD3181B689F46A8239B00FB181B78012B00D042E34C4BFB181B88002B00D03CE31B
:400880000020FFF769FE03005A425341DBB21A00494BAA2189008C46BC4463441A71484BFB1801221A80434BFB1800221A7024E3A8239B00FB181B78012B00D01FE33A4BAF
:4008C000FB181B88012B00D019E33E4BFB181B78002B00D013E33D4B1B681B68DA0BA4239B00FB181A70374BFA18A4239B00FB1812781B789A420BD1344B1B681B68DB0971
:400900009AB2A7239B00FB18FF210A401A8014E02C4BFA18A4239B00FB1812781B789A4205D9A7239B00FB1800221A8005E0A7239B00FB18802252001A80A7239B00FB188F
:400940001B88DAB21C4BAA2189008C46BC4463441A71A7239B00FB181B881B0A9BB2DAB2154BAA2189008C46BC4463445A71124BAA2292009446BC446344FF229A710E4BB7
:40098000AA2292009446BC4463440022DA710C4BFB1804221A80074BFB1800221A70AEE254FDFFFF5FFDFFFFA2020000A10200009E020000A5020000ACFEFFFF92020000AD
:4009C000A6020000910200006C1D0000D8000020C14BAA2292009446BC4463445B78342B19D1A8239B00FB181B78012B00D093E2BA4BFB181B88032B00D08DE2B84BFB1879
:400A000080221A80B64BFB181A882823FB180021180001F092F9A8239B00FB181B78012B00D06EE2AD4BFB181B88022B00D868E2AB4BFB181B882822BA18D018A74BFB18A7
:400A40001B88DA1EAA235B00FB180733190001F06BF9A34BFA18A14BFB1812881B88D3189AB29F4BFB18033A1A809C4BFB1880221A809C4BFB18802252001A80984BFA18FE
:400A8000964BFB1812881B889A4200D070E0924BAA2292009446BC4463449B799BB21B0299B28D4BAA2292009446BC4463445B799AB28B4BFB180A431A80894BFA18894B23
:400AC000FB1812881B889A4201D2002200E00A22854BFB181A70844BFB181B78002B00D011E2824BFB181B789BB21B0299B2A3239B00FB187A4ABA1812888A181A807C4B2A
:400B00001B681B68DA097B4BFB181A80784B1B681B687F22134006D0764BFB181A88754BFB1801321A80A3239B00FA18714BFB1812881B889A4208D26B4BFB180A221A70FC
:400B4000674BFB1800221A80E6E1A3239B00FB181B882822BA181100180000F097FB031E01D00A2200E000225F4BFB181A7003E05D4BFB1803221A70594BFB1800221A8028
:400B8000BFE1A8239B00FB181B78012B00D0BCE1534BFB1800221A80CCE1A8239B00FB181B78012B00D0B2E14D4BFB181A884B4BFB181B88D3181A0096235B009A421ED8B7
:400BC000494BFB1800221A70454BFB181B882822BA18D018414BFB181A88AA235B00FB180433190001F0A0F83D4BFB183C4AB9183A4ABA18098812888A181A8087E13A4B67
:400C0000FB1803221A7082E1344BFB181B88002B26D1394BAA2292009446BC446344374A03CA03C3A8239B00FB1801221A70344BFB1808221A802A4BFB1800221A80304B86
:400C4000FB181A882023F918AA235B00FB180433180001F069F8244BFB1800221A705BE1214BFB1804221A7056E1A8239B00FB181B78012B00D04CE1184BFB181B88032B43
:400C800000D046E1144BAA2292009446BC4463449B799BB21B0299B20F4BAA2292009446BC4463445B799AB2164BFB180A431A800E4BFB181B781A02124BFB181B88D31869
:400CC000DB01A1229200BA1813600E4BFB181B88FF2B19D8002218E0ACFEFFFFA20200009E0200008E020000A502000091020000D80000209A02000078FDFFFF641D0000FC
:400D0000A60200008A0200000A22974BFB181A70954BFB181B78002B00D0FCE0934BFC18A1239B00FB181B68802219000020FFF759FB030023708E4BFB181B789BB21B02EC
:400D400099B28C4BFB188C4ABA1812888A181A80874BFB181B78002B1ED1864BFB181B88FF2B19D10021052000F072F90300DAB27E4BFB187D49791809788A1A1A70002160
:400D8000062000F065F90300DAB2784BFB187749791809788A1A1A70744BFB181B785B42DAB2764BAA2189008C46BC4463441A716D4BFB1800221A70714BFB1801221A80B0
:400DC000A7E00020FFF7C8FB031E02D16D4B80221A6000F097FD00F041FD9DE06A4B1B68002B00D183E0A8239B00FB181B78012B00D07CE0614BAA2292009446BC44634416
:400E00005A78624BAA2189008C46BC4463441A705E4BAA2292009446BC4463445C4ABA1812885A80594BAA2292009446BC446344AA225200BA1804325A600C23FB180C2295
:400E40000021180000F079FF524BAA2292009446BC446344AA225200BA1804329A604A4B1B680C22B9181822BA1810009847444BFB18484AAA2189008C46BC446244928809
:400E80001A803F4BFB181A882623FF339A420CD9404BAA2292009446BC4463449A68AA235B00FB1804339A420DD03A4BAA2292009446BC4463449B68002B0DD1304BFB1888
:400EC0001B88002B08D0284BFB180E221A702C4BFB1800221A800FE02E4BAA2292009446BC4463441A68204BFB181A7004E01E4BFB1805221A700FE00EE0C0460CE0C0460F
:400F00000AE0C04608E0C04606E0C04604E0C04602E0C04600E0C046194BFB181A88AA235B00F918104BFB181B78180000F036F800E0C046184BAA2292009446BC4463447E
:400F40001B78002B01D1FFF795FBA8239B00FB181B78012B01D1FFF78DFBC046BD46AB239B009D4490BDC046A50200009902000091020000820200008A020000ACFEFFFFA0
:400F8000A6020000C00000207401002070FDFFFFA202000064FDFFFF5FFDFFFF90B585B000AF39601100FB1D021C1A703B1D0A1C1A803B6801221A703B680133FA1D1278D9
:400FC0001A703B6802333A1D1288D2B21A703B6803333A1D1288120A92B2D2B21A703B1D1B8804339AB20E23FC183B6811001800FFF7CCF9030023803B1D1B8804333A6894
:40100000D3180E22BA181288D2B21A703B1D1B8805333A68D3180E22BA181288120A92B2D2B21A703B1D1B8806333A68D31817221A703B1D1B88073399B23A1D386896239D
:4010400000F0CEFC03001800BD4605B090BDC04680B586B000AF0200FB1D1A70BB1D0A1C1A701323FB1802221A700023FB60FB1D1B780C2B00D9A8E09A00774BD3181B68C8
:401080009F46BB1D1A7813005B069B1ADB01734A944663447B611323FB1801221A709AE0BB1D1A7813005B069B1ADB016C4A944663447B611323FB1804221A708BE0BB1D94
:4010C0001A7813005B069B1ADB01664A944663447B6180E0BB1D1A7813005B069B1ADB01614A944663447B611323FB1804221A7071E0BB1D1A7813005B069B1ADB015B4A17
:40110000944663447B611323FB1801221A7062E0BB1D1A7813005B069B1ADB01544A944663447B611323FB1801221A7053E0BB1D1A7813005B069B1ADB014E4A94466344FF
:401140007B6148E0BB1D1A7813005B069B1ADB01494A944663447B613DE0BB1D1A7813005B069B1ADB01454A944663447B6132E0BB1D1A7813005B069B1ADB01404A9446AF
:4011800063447B611323FB1804221A7023E0BB1D1A7813005B069B1ADB013A4A944663447B611323FB1801221A7014E0BB1D1A7813005B069B1ADB01334A944663447B612D
:4011C0001323FB1804221A7005E0002000F03AFB00237B61C0461323FB181B78012B03D17B691B78DBB2FB601323FB181B78022B0BD17B691B78DBB2FB607B6901331B789D
:40120000DBB21B02FA681343FB601323FB181B78042B1BD17B691B78DBB2FB607B6901331B78DBB21B02FA681343FB607B6902331B78DBB21B04FA681343FB607B690333AE
:401240001B78DBB21B06FA681343FB60FB681800BD4606B080BDC046981D0000C07F0000C17F0000C57F0000C97F0000D07F0000D17F0000D67F0000D27F0000D47F00004B
:40128000D87F0000DC7F0000E07F000090B5AFB000AF7860396000239422BA18136000239022BA1813600023A022BA1813600023B422BA1813600023B022BA18136000235C
:4012C000AC22BA1813600023A822BA1813607B68FF2B00D985E13B68002B00D181E139680823FB1808338022180000F01DFD0223A422BA1813602FE00823FB18A422BA1869
:4013000012689200D3589C22BA1813609C23FB181B68002B19D0AC23FB181A689C23FB181B68D318AC22BA181360A823FB181A689C23FB181B681343A822BA181360A42372
:40134000FB181B68B422BA181360A423FB181B680133A422BA181360A423FB181B68212BCAD9AC23FB181B68002B06D1A823FB181B68002B01D0012300E00023A022BA1855
:401380001360A023FB181B68002B11D00823FB18B422BA1812689200D358B022BA1813600823FB18B422BA18126892000021D1500823FB18904A1A600823FB187F225A60C2
:4013C0008E4B0822BA181A608D4B8E4A1A60C0468A4B1B681B0F1A07F0231B069A4204D1864B1B68FF2213400DE0844B1B681B0F1A07A0231B069A4204D0804B1B68FF2291
:40140000134000E000239422BA1813609423FB181B68002B00D0E8E09B23FC1800F01AFB0300237000F0F8F803009022BA1813609423FB181B68002B32D10823FB18724A8F
:401440001A600823FB181A687B681B041A430823FB181A60694B0822BA181A60684B6B4A1A60C046654B1B681B0F1A07F0231B069A4204D1614B1B68FF2213400DE05F4B6C
:401480001B681B0F1A07A0231B069A4204D05B4B1B68FF22134000E000239422BA1813609423FB181B68002B00D07DE0A023FB181B68002B00D177E00823FB1808338022C3
:4014C0000021180000F039FC0823FB18B422BA1812689200B02179180968D1500823FB18454A1A600823FB187F225A60434B0822BA181A60424B434A1A60C0463F4B1B681D
:401500001B0F1A07F0231B069A4204D13B4B1B68FF2213400DE0394B1B681B0F1A07A0231B069A4204D0354B1B68FF22134000E000239422BA1813609423FB181B68002B3E
:4015400032D10823FB18324A1A600823FB181A687B681B041A430823FB181A60274B0822BA181A60264B2B4A1A60C046234B1B681B0F1A07F0231B069A4204D11F4B1B6801
:40158000FF2213400DE01D4B1B681B0F1A07A0231B069A4204D0194B1B68FF22134000E000239422BA1813609023FB181B68002B10D100F043F803009022BA18136090237A
:4015C000FB181B68002B05D09023FB181B689422BA1813609B23FB181B78180000F03EFA03E004239422BA1813609423FB181B681800BD462FB090BDB6D7000008000040FF
:401600000400004004000080B6D8000005000080B6D900000600008080B582B000AF00237B60044B1A68044B1A607B681800BD4602B080BD08010B407801002080B582B0CB
:4016400000AF00237B60044A044B1B6813607B681800BD4602B080BD08010B407801002090B585B000AF78600C23FC1800F0F2F9030023707B68022B00D8AFE07B68302BE6
:4016800000D9ABE05C4B1B78DBB21A007B689A420AD35A4A0F23FB1812781A70584A0E23FB1812781A703FE0564B1B78DBB21A007B689A420AD3544A0F23FB1812781A70C5
:4016C000524A0E23FB1812781A702DE0504B1B78DBB21A007B689A420AD34E4A0F23FB1812781A704C4A0E23FB1812781A701BE04A4B1B78DBB21A007B689A420AD3484AA1
:401700000F23FB1812781A70464A0E23FB1812781A7009E0444A0F23FB1812781A70434A0E23FB1812781A707B68DA1E0B23FB183F498A5C1A700B23FB181B782F2B0DD98B
:401740007B682A2B0AD93B4B19221A60052000F077F90D23FB1819221A7007E0354B1B68DAB20D23FB183F210A401A700B23FA180D23FB1812781B789A4208D22D4B7A68E9
:40178000033A2B498A5C1A60052000F059F92A4B7A6826498C4662441278D2B21A60274B0F22BA1812781A60254B0E22BA1812781A60052000F08AF80B23FA180D23FB18E2
:4017C00012781B789A420CD91A4B7A68033A18498A5C1A60052000F033F902E0002000F031F80C23FB181B78180000F037F9C046BD4605B090BDC046C0F1FF0FC1F1FF0FCD
:40180000C2F1FF0FC3F1FF0FC4F1FF0FC5F1FF0FC6F1FF0FC7F1FF0FC8F1FF0FC9F1FF0FCAF1FF0FCBF1FF0FCCF1FF0FCDF1FF0FCC1D00002CFF0B4028FF0B401CFF0B4023
:4018400020FF0B4080B582B000AF0200FB1D1A7001BEC046BD4602B080BDC04680B500AF054B054A12681204120C04490A431A60C046BD4680BDC0460CED00E00400FA051A
:4018800080B582B000AF786009E00D4B1B68180000F0D6F87B680B4A944663447B607A6880231B029A42F0D8074B1B687A685343180000F0C5F8C046BD4602B080BDC046B6
:4018C000E80000200080FFFFE000002080B582B000AF0200BB1D1A80BB1D1B88044A12785343180000F0ACF8C046BD4602B080BDE400002080B500AF00F0CEF8C046BD46A4
:4019000080BDC04680B500AF00F0D8F8C046BD4680BDC04690B589B000AFF86008007A6019000A23FB18021C1A800923FB180A1C1A700123FB61FB68002B4BD00A23FB18A4
:401940001B88002B46D01023FB610923FB181A7813009B009B185B007B610023BB6100F0E7F8031E1BD000F0E3F80300BB61AD20FFF7ACFF00F0DCF80200BB699A42F2D190
:401980000A23FB181B88BA69934200D91300BB61BB699AB27B681A800023FB6108E00120FFF76EFF7B69013B7B617B69002BD6D100233B610AE0FA683B69D41800F0A8F88F
:4019C0000300DBB223703B6901333B613A69BB699A42F0D3FB691800BD4609B090BDC04680B586B000AFF86008007A6019000A23FB18021C1A800923FB180A1C1A700123E7
:401A00007B61FB68002B13D00A23FB181B88002B0ED00A23FB181A88FB681100180000F0ADF87B680A22BA1812881A8000237B617B691800BD4606B080BDC046000000005E
:401A40000230800804D0C0460138FDD1C046C046C0467047EFF3108072B6704780F310887047C04680B500AF00F0A2F8C046BD4680BDC04680B500AF064B064A126880218F
:401A800009060A431A6000F02DF800F031F8C046BD4680BD0000064080B500AF064B1B78002B04D1FFF7DEFF034B01221A70FFF7E1FFC046BD4680BD7C01002080B500AF63
:401AC00000F01EF8054B054A1268520052081A60034B00221A60C046BD4680BD00000640880F064080B500AFC046BD4680BDC04680B500AF00F0BAF8C046BD4680BDC0464C
:401B000080B500AF00F0CAF8C046BD4680BDC04680B582B000AF00237B60044B1B687B607B681800BD4602B080BDC0464003064080B582B000AF054B1B680F2213407B603E
:401B40007B681800BD4602B080BDC0460803064080B582B000AF7860C046064B1B680F221340082BF9D0044B7A681A60C046BD4602B080BD080206404002064080B584B0F5
:401B800000AF786039600023FB6009E07A68FB68D3181B781800FFF7DBFFFB680133FB60FA683B689A42F1D3C046BD4604B080BD80B500AF1A4B1B4A1A601B4B00221A6038
:401BC0001A4B1B4A1A601B4B1B4A1A601B4B07221A601B4B00221A601A4B01221A601A4B154A1A60194B00221A60194B00221A60184B00221A60184B00221A60174B00228F
:401C00001A60174B00221A60164B00221A60154B1B689AB2144B1A80C046BD4680BDC046000006400B000002400006404800064001000A000003064007000080040306402C
:401C400010030640440006400002064004020640880E0640C80E0640480F0640080F0640C80F0640880F06407E01002080B500AF074B074A1268F0218A4390210A431A600B
:401C8000044B054A12881A60C046BD4680BDC04610000140880F06407E01002080B500AF084B084A1268F0218A431A60064B1B689AB2E423DB0013409AB2044B1A80C0466E
:401CC000BD4680BD10000140880F06407E010020014B18687047C046500100200E4B70B500251E000D4CE41AA410A54204D0AB00F35898470135F8E700F080F8084B00258C
:401D00001E00084CE41AA410A54204D0AB00F35898470135F8E770BD081E0000081E0000081E0000101E0000002310B59A4203D0CC5CC4540133F9E710BD030082189342E3
:401D400002D019700133FAE77047000085000000001F00000000000000300F40000400400F4000049311C804113C010166080000B0080000DC0D0000D0090000820B00004E
:401D8000DC0D00009A0B0000080C0000D00900006A0C0000C20D0000CA11000082100000A0100000BE100000D4100000F210000010110000441100002E1100005A11000072
:401DC000701100008E110000AC110000030405060708090A0B0C0E0F101112131415161718191B1C1D1E1F2021222325262728292A2B2E2F3031323334354300F8B5C04620
:401E0000F8BC08BC9E467047A1010000C5020000F8B5C046F8BC08BC9E46704779010000301E0000D00000208800000028000000000000004C1D0000501D00000024F4000A
:401E4000803E0000100000000000401F010000000000000000000000000000000000000000000000000000000000000000000000FA1D00000000000000000000000000001D
:401E8000000000000000000000000000000000000000000000000000000000000000000000000000000000000000000000000000F000002000000000000000000000000012
:401EC00000000000000000000000000000000000000000000000000000000000000000000000000000000000000000000000000000000000000000000000000000000000E2
:401F000000100020111F00000D3100000D31000010B5024B83F3088801F000F90010002070B5194C23688022D20213432360182001F088FD2268154B13402360144A154B03
:401F40001A601022144B1A601032144B1A601032134B1A6082221206124B1A6000252560114A124B1A60124A124B1A60124A134B1A601349092001F00BFD092001F0F2FC4B
:401F8000104B1D6070BDC04600010B40FFFFFBFF0600008004010B400C0202401C0202403002024008010B4002000080000002400500008040000240170000808000024060
:401FC000553C00000C020B4010B572B600240FE029486200131959000B00411889881A5AC31858880004104301F06CF80134E4B2012CEDD920490C3120481C3001F048F806
:40200000C02292041E4B1A601E4A1F4B1A6099231B041E4A13608A21C9051D4A11601D4A13601D4A13601D490B783C22934314221343DBB20B701A4A117816230B43DBB28C
:4020400013704022174B1A60C0225203164B1A608022164B1A601E23154A1360154A13600322154B1A60154A154B1A60FFF758FF01F03EF810BDC0462C460000AC46000048
:4020800004000140EEEE00000C00014010500F4018500F4020500F4030500F4001700F4000700F40000104400801044018010440000204401802044000030440A40D0000B4
:4020C0000803044010B5064C2378002B07D1054B002B02D0044800E000BF0123237010BD5005002000000000E0400000084B10B5002B03D00749084800E000BF074803687C
:40210000002B00D110BD064B002BFBD09847F9E70000000054050020E0400000C800002000000000F0B557464E464546E0B486B062B601F06DFB01F053F801F0E7FB01F0B3
:40214000EDFA62B63C2000F0A7FC00F01DFC00F049FC01222821282000F0FCFC00F042FCFA20800001F04CFC00F00EFC00F03AFC00240EE000F0AEFC013803B20122009227
:4021800022000021002000F00DFD00F02BFC043424B200F099FC8442ECDB00240EE000F093FC013802B20123009323000021002000F0F8FC00F016FC043424B200F08AFC88
:4021C0008442ECDBE94801F01BFC00F0DDFB00F009FC012000F08AFC012000F08FFC0021002000F07DFC002406E00A2C02D0E0B200F0F8FE013424B2A72CF6DD00F0F2FB67
:40220000DA4C200001F0FCFB00F0BEFB00F0EAFB0021002000F064FC022000F067FC382000F0E0FE032000F061FC382000F0DAFE042000F05BFC382000F0D4FE00F0D2FBF4
:40224000200001F0DDFB00F09FFB00F0CBFB012000F04CFC012000F051FC0021002000F03FFCC34800F00CFFC24800F009FF00F0B9FB200001F0C4FB00F086FB00F0B2FB88
:40228000012000F033FC012000F038FC0021002000F026FC012404E0B74800F0F1FE013424B20F2CF8DD00F09DFB072326220721002000F0BBFBFA24E400200001F0A0FBAE
:4022C00000F0A8FB06232A220421022000F0AEFB200001F095FB00F09DFBA44801F090FB00F052FB00F07EFB002415E000F0ECFB0500A6B2720097B200F0ECFBC31B1BB235
:40230000EA1B12B2012100912100200000F0B6FC00F068FB023634B200F0DCFBC30F1818401000B28442E1DB904801F069FB00F02BFB00F057FB0126002419E000F0C4FB08
:402340008046A7B27A0095B200F0C4FB431B1BB24246521B12B20121314000912100200000F0B8FC00F03EFB0136F6B203373CB200F0B0FBC30F1818401000B28442DDDB94
:402380007A4801F03DFB00F0FFFA00F02BFB002514E000F099FB040000F09CFBC10F0818401001B2E00F0419641020B201232A0000F0C8FC00F016FB02352DB200F08AFB38
:4023C0008542E6DB694801F01BFB00F0DDFA00F009FB00243BE000F077FB060000F07AFB0700A4B200F070FB804600F073FB814600F06AFB050000F06DFB4B46DB0F4B4477
:402400005B10E3181BB24246D20F42445210121B12B2F90FCF197F10391B09B2F70FBE19761036B201270297C70F38184010201800B20190E80F45196D1065192DB20095D8
:40244000300000F023FD00F0CDFA053424B2250000F03AFB060000F03DFB864205DA00F033FBC30F1818401004E000F033FBC30F18184010A842AEDC3C4801F0C1FA00F0DF
:4024800083FA00F0AFFA002398465FE043466A46D375D07D00F038FB00243EE000F014FB070000F017FB0600A4B200F00DFB814600F010FB824600F007FB050000F00AFBC1
:4024C0005346DB0F53445B10E3181BB24A46D20F4A445210121B12B2F10F89194910091B09B2FE0FF7197F103FB201260296C60F30184010201800B20190E80F45196D104D
:4025000065192DB20095380000F0C0FC00F06AFAC82001F075FA053424B2250000F0D4FA070000F0D7FA874205DA00F0CDFAC30F1818401004E000F0CDFAC30F18184010D1
:40254000A842ABDC4646013633B298464346032B9CDD064801F054FA012000F031FAFA20800001F04DFA802464000FE0B80B0000E4400000F440000004410000E0B200F0C0
:4025800011FA0A2001F03CFA013C24B2002CF5DA002000F015FAFA20800001F031FA002407E0E0B200F0FEF90A2001F029FA013424B2FF2CF5DD024801F022FAC5E5C0460B
:4025C000B80B000083B27F2B3FD800293DDB3F293BDC012A04D0002A14D0022A24D034E0CB17072213405B18DB10DB011818174B0133181807231940063B8B400278134334
:40260000037022E0CB17072213405B18DB10DB0118180E4B0133181807231940063A8A4003789343037010E0CB17072213405B18DB10DB011818054B013318180723194060
:40264000063B8B400278534003707047CC000020F0B5474680B406AC258890426FD1CF17072637407F18FF10FF013818494F01373818DC173440E418E410E401A218BA18EC
:40268000040059E084421BD1434E0E4004D5013E08277F423E430136F6B2B046F618761AF6B2062E00D907264746F61B01360127B7403E00013E4746BE40F6B2B44610E0E0
:4026C00094420ED1344E1E4004D5013E08277F423E43013636B20127B7403E00013EF6B2B446844201D0944215D1012D04D0002D07D0022D0AD01EE02778664637432770A3
:4027000019E027786646B743277014E027786646774027700FE0012D04D0002D05D0022D06D008E0FF27277005E00027277002E02778FF43277080349442A3D926E0CB17AF
:40274000072423405B18DB10DB011C18114B01331B19121A9A180720014006388840C4B212E0012D04D0002D06D0022D08D00AE019782143197006E019788143197002E0CB
:4027800019786140197001339342EAD904BC9046F0BDC046CC0000200700008010B50023CA5E144B1B78022B0CD0032B19D0012B1FD10024035F0B800F4B1B889A1A013A9B
:4027C000028016E00023C25E0B4B1B889B1A013B03800023CA5E094B1B889B1A013B0B8007E00023C45E054B1B881B1B013B0B80028010BDB2060020B0060020B406002000
:4028000070B584B008AC24880E256D44288003AD29800A2169440A8002A90B80904208D02B000021595E02AB00255B5F994200D080E0414B1B78012B01D0032B1CD10028BF
:4028400078DB3E4B00215B5E984273DA002A71DB9A426FDA03AB00229B5E002B6ADB384A0021525E934265DA02AB00215B5E002B60DB9A421CDC5DE003AB00215B5E002B8F
:4028800058DB2E490025495F8B4253DA02AB00255B5F002B4EDB99424CDD00284ADB284B00215B5E984245DA002A43DB9A4241DA0E266E4403A93000FFF770FF0A256D44EA
:4028C00002A92800FFF76AFF0022B35E00216A5E934207D102A90020085E03A90025495F884209DB03A90020085E02A90025495F88420ED193420CDD0E2169440A800A22E2
:402900006A44138003AA0023D15E02AB18881080198002AB00229B5E0A226A440021525E03A90020095E0E2068440025405F0094FFF78EFE04B070BDB2060020B4060020F4
:40294000B006002070B505000C000E4B187800230A00290000F090FD00F004FD8307FBD500F000FD830505D400F0F6FC844203D0FF2402E0FF2400E0002400F00BFD200037
:4029800070BDC0466C05002010B5054C601C8022D200002101F095FB4023237010BDC046CC00002000B583B001AB00221A7081325A70987003211800FFF7C4FF03B000BDCC
:4029C00000B583B0002201AB1A70002801D0A72300E0A62301A843700221FFF7B3FF03B000BDC04600B583B007220749684601F05FFB07216846FFF7A5FF04490448FFF735
:402A0000A1FF03B000BDC0460C41000001040000CC00002000B583B001A8002303702E3343700221FFF78EFF03B000BD30B585B001AC002525706270A570E07023716171D3
:402A4000A571FF23E371D03B237209212000FFF779FF05B030BDC0460A4B18800A4B19800A4B58809980002209490A70DA801A8101329A72012149429981D981054B1A708C
:402A80007047C046B0060020B40600206C050020B2060020B606002000B589B0084B187040218020FFF7D8FF1A220649083101A801F0FEFA1A2101A8FFF744FF09B000BDE4
:402AC0006C0500200C410000014B0220185E70476C050020014B0420185E70476C050020014BD880198170476C050020002800D10130014B987270476C050020014B9881EB
:402B0000D88170476C050020032318400D4B187001280ED0002804D0022802D003280FD107E0094B094A12885A80094A12889A8006E0054B064A12885A80044A12889A8087
:402B40007047C046B20600206C050020B0060020B406002070B582B014006B46D88001AB198000281ADB0E4B02229B5E984215DA0BB2002B12DB0A4A0421525E93420DDAB0
:402B800001AE6B469D1D31002800FFF707FE0023F15E0023E85E2200FFF714FD02B070BD6C050020F0B55F4656464D464446F0B485B005000E0017000EAA12880292B8424D
:402BC00001D0994207D1029A00923A0031002800FFF716FE4AE05A1AD11752184A4090463A1AD11752184A409146904504DD3A001F00130035000600BD4205DD32001E00A1
:402C000013002A003D0017007A1B92B2934614B29A1BD11752184A409246E20F141964109E4202DA012303931EE001235B4203931AE0C84505DD029A29003000FFF78AFF68
:402C400004E0029A31002800FFF784FF5346E41AA3B21CB2002C05DA039A9446664436B25B441CB201352DB2BD42E2DD05B03CBC90469946A246AB46F0BDC046F0B585B02C
:402C800007000E001D000AAB1C888218013A13B2180000940B00039002003800FFF782FF7519013D2DB200942B00039A29003800FFF778FF00942B003A0031003800FFF7C7
:402CC00071FF00942B00039802003100FFF76AFF05B0F0BDF0B54F464646C0B483B005000E00170098460AAB1B88994690450FDC0C001EE04346F318013B1BB24A460092E1
:402D0000220031002000FFF74DFF013424B200E00400EB199C42EDDB0FE0EA19013A12B24B460093230021002800FFF73BFF013424B24346F3189C42EFDB03B00CBC9046FC
:402D40009946F0BDF0B55F4656464D464446F0B487B006000D000292180097B20124E41B24B2FB03DB1B5A0013B205938BB29A46F91809B2019002003000FFF7EBFE534618
:402D8000D91B09B2019A3000FFF7E4FEB3B29B46F81800B2019E32002900FFF7DBFE5B46D81B00B232002900FFF7D4FE002301220392A04699465FE04346002B0BDB029B71
:402DC000013B1BB20293059B02339BB21AB2059243441BB298464D460135ADB22BB29946039B02339BB21AB2039243441BB298465B465B191BB26A461689524697193FB27D
:402E0000019A390004931800FFF7A4FE5A46541B24B2019A39002000FFF79CFE5246971B3FB2019A39000498FFF794FE019A39002000FFF78FFE5B469F193FB253465C190C
:402E400024B2019A21003800FFF784FE5B469E1B36B2019A21003000FFF77CFE53465D1B2DB2019C220029003800FFF773FE220029003000FFF76EFE029B99459CDB07B075
:402E80003CBC90469946A246AB46F0BDF0B587B01F000CAB00241C5F0DAB00255D5F0EAB1E8800963B00059204910390FFF77AFE00962B00220039000598FFF773FE0096E2
:402EC000049B039A29002000FFF76CFE07B0F0BDF0B55F4656464D464446F0B485B081468A46039298460EAB1B889B460FAB1E783A4B02229B5E834268DD384B04229B5EC8
:402F00008B4263DD7200921953004B44012B5DD4F3005344012B59D4002755E0052F09D0039A930094466344FB182D4AD31824229D5C00E0002500244346B8461F003CE08C
:402F4000EB071AD5012E09D15346E11809B24046484400B23A00FFF7FDFD2BE0B0B232B221004143514409B243465843484400B200971300FFF7AEFE1CE05F451AD0012E7F
:402F800009D15346E11809B24046484400B25A46FFF7E0FD0EE0B0B232B221004143514409B243465843484400B25B4600931300FFF790FE6D08013464B2072CC0DD3B0092
:402FC0004746984601377FB2052FA7DD05B03CBC90469946A246AB46F0BDC0466C0500200C41000030B583B00A2808D11B4B9A7AD200198952181A810022DA802CE00D28A6
:403000002AD0164CE3890822A15E0622A55EA27A0192A289009202002800FFF759FFA27A90B2410041184D00E388EB181BB2E3800B49097800290FD09100521A5100074A31
:403040000224125F51188B4206DD044BC0001A89801818810022DA8003B030BD6C050020B606002070B5060001F033F80500002403E0305DFFF7B6FF0134AC42F9D370BD8D
:4030800010B5FFF7EFFF0A20FFF7ACFF10BDC046F0B50025002711E0BB00C658F3B2FF22964308E06A008A181478A419527822700135013BDBB2002BF4D10137042FEBD9B8
:4030C000F0BDC04610B50A00002100F0FAFF10BD064B1B68002803D080221206134301E05B005B08014A13607047C04680031A4010B51E23034A1360034A13600120FFF704
:40310000E7FF10BD00031A4040031A4010B500F0A3FF03680C2B00D1FEE7FEE770B50F4E0F4D13E029686B68AC68002202E001C901C30432A242FAD1E868002202E0002119
:4031400002C304328242FAD11035013E002EE9D100F088FFFEF7E6FFFEE7C046010000008447000010B500230AE0032B03D89A000C49505800E00C4899000C4A88500133B0
:403180002F2BF2D9FEF720FF094B1B68002B02D10022074B1A608022D205116801230B43136010BD001F00000D31000000000020C000002010B50B2000F0D4FB10BDC04690
:4031C00010B500F01DF810BD10B5044A1368802109060B431360FFF7EDFF10BD0000074010B5064B1B78002B04D1FFF7E9FF0122024B1A70FFF7E8FF10BDC0467C05002071
:4032000010B51B4A11680C230B4313600024194B1C60194A194B1A60194B1A4A13601A4A14601A4A14601A4A13601A4B1C600B2000F0A2FB03210B2000F0BCFB16490B20DB
:4032400000F0A6FB154B1C60154B1C60154B1C60154B1C60154B1C60154B1C601022154B1A70154B1C80154B1C60154B1C6010BD7000074000000740C70800806000074004
:403280000701008000030740040307401003074000020740040207401D3D0000C80E0740880E0740480F0740080F0740C80F0740880F0740B7060020C4060020D4060020F1
:4032C000BC06002010B5144A13685B005B081360002312490B6012490B601248046812492140016011490B6011490B601149124B19601249124B19601249134B1960134912
:40330000134B19601021134B19701368802109060B43136010BDC04600000740680007406C00074060000740FF5CFFFF880F0740C80F0740F3070000800F0740ED0F00006E
:40334000C00F0740FF0F0000400F074017030000000F0740B7060020014B18687047C046BC06002010B50B2000F006FB074B1C88A2B21400064B1B789B0602D504231A43BC
:4033800094B20B2000F0EEFA200010BDC4060020B706002010B50B2000F0EEFA044B1C88A4B200221A800B2000F0DCFA200010BDC406002070B52B4B1B6820251D402A4C45
:4033C00003E0012000F034FB013C00F0AFFA002801D1002CF5D1002C43D0002000F0AEFA224A13680F218B431360214A13685B005B081360002D18D0002000F09FFA0320A1
:4034000000F016FB012000F099FA032000F010FB154C03E0012000F00BFB013C00F09AFA002803D1002CF5D100E00F4C002C08D0002000F083FA032000F0FAFA01220D4B71
:403440001A600B4A1368802109060B43136007490B680F229343013A13430B60012000F06DFA70BD64000740204E00000C0001400000074068000740F0B583B001900C0055
:4034800017001D00002917D02A4B1B78102B08D10B2000F071FA284B1B68DB070ED508260FE0244B1B78602B0AD1244A138808218B431380002604E0042602E0002600E037
:4034C0000426002E2FD128221A4B1A7000231C4A13601C4A13601C4B1F601C4B1C60EAB21B4B1A70019B5C00FF231C40134A138802218B4313804023164A13601649174A29
:4035000011601421FF31164A1160164A1360EB0704D5FFF74FFF144B1C6004E0124B1C600222124B1A600B2000F01CFA300003B0F0BDC046B706002064000740C406002036
:40354000B8060020BC060020C0060020D8060020CC060020800F074017030000000F0740080F0740880F0740400207406800074010B503210E2000F01DFA44490E2000F032
:4035800007FA0F22424B1A60424B1B68002B01DA414900E04149424A13680B431360414A414B1A60414A424B1A600023414A1360414A42490A6042490A60424A11688020A2
:4035C00040020143116040490A6802430A603F4A13603F4A136001333E4A136002213E4A11603E4908683E4A024013430B60002248E03C4891000C58DC239B01234080180C
:40360000007C03433848844661440B60E30707D52E480168012393401B041B0C0B430360930030495B589B0707D529480168012393401B041B0C0B43036093002949595820
:403640008B0502D58020400001E080204001CB0504D45300002425495C5203E05300002422495C52224B43438021C9008C466344D9174905490DCB18DB121BB290001D4996
:4036800043500132032AB4D910BDC0463D37000020001A4080031A40C0201011C020001100001A408C00008004001A400000FF0718001A401C001A400400040010001A40D6
:4036C00014001A4000031A4040031A4028021A4038021A4018021A40000F1A4030001A40FFFFFFDFDC46000080001A40EC06002010270000DC06002010B5074B1B68002BFB
:4037000008DB054A1368802109060B4313600A2000F08EF910BDC04600001A4010B5064B1B78002B04D1FFF723FF0122024B1A70FFF7E2FF10BDC04684050020014B1A68C1
:403740001A60704710021A40034A117880235B420B43DBB21370704772000F40014B18707047C04602000F40014B18707047C04642000F40014B18707047C04622000F40BA
:40378000014B18707047C04682000F40014B1878C0B2704762000F40014B1878C0B2704752000F4010B501E0FFF7F6FFFFF7EEFFC306F9D410BDC04610B513490B783F2269
:4037C00093430C221343DBB20B70104C227801231343DBB22370FF20FFF7C0FFFF20FFF7C3FF3B20FFF7C6FF0020FFF7C9FF00F08DFA227810231343DBB2237000F08AFA0A
:40380000FFF7D0FF10BDC04672000F4092000F4010B5064B1B78002B04D1FFF7CDFF0122024B1A70FFF790FF10BDC0468505002010B5012309E0591E42001218084CA21824
:40384000D45C084A521814710133420012180449525C9342EFD9013B024A136010BDC046F04600008805002010B5074904C9074B18680023FFF700FEFFF774FD8307FBD562
:403880000022014B1A6010BD88050020D004002010B5040000201AE043001B180D4AD3189B78A34211D1FFF7C3FFFFF7DDFF082C07D004D8013CE4B2012C0AD801E00E2CCF
:4038C00007D1054800F0B4F803E00130C0B20F28E2D910BDF0460000DC05000010B52420FFF7D6FF0E20FFF7D3FF0620FFF7D0FF0C20FFF7CDFF0120FFF7CAFF10BDC04655
:4039000010B50C20FFF7C4FF10BDC04610B5064B1B79002B04D1FFF7E1FF0122024B1A71FFF7EEFF10BDC04688060020024B1868400801231840704704030440044A1368CF
:40394000DBB201218B430840184310607047C04600030440024B1B68012018407047C046040304401F2318401E3B8340014A13607047C04600E100E01F2318401E3B8340BA
:40398000014A13607047C04680E100E001BE704770B504000D001F2802D90020FFF7F6FF1034A40080239B059C4664442068256070BDC04670B504000E00032902D900201F
:4039C000FFF7E4FF1F2C02D90020FFF7DFFF03252540ED00063500F099F9A408A400074B9C46644421680323AB4099430B003100A9401943216000F08DF970BD00E400E092
:403A000010B5040006E0084B586800F075F9074B9C46644480231B029C42F4D8024B9868604300F069F910BDD40400200080FFFF10B5034B1B7B584300F05EF910BDC0463D
:403A4000D4040020F0B557464E46C0B483B0040000F05CF90190E71E2D2F74D83F4B1B78DBB29C4208D83E4B1B78DBB29A463D4B1B78DBB2994631E03B4B1B78DBB29C423D
:403A800008D83A4B1B78DBB29A46394B1B78DBB2994623E0374B1B78DBB29C4208D8364B1B78DBB29A46354B1B78DBB2994615E0334B1B78DBB29C4208D8324B1B78DBB2CD
:403AC0009A46314B1B78DBB2994607E02F4B1B78DBB29A462E4B1B78DBB299462D4BDE5D2F2E09D92A2C07D919222B4B1A60052000F002F9192503E0274B1D683F231D4058
:403B0000B54206D9234BDA5D234B1A60052000F0F3F81F4B9C4664442378DBB21F4A13601F4B52461A601F4B4A461A600520FFF77FFFB5420AD2174BDA5D174B1A60052034
:403B400000F0DAF802E00020FFF720FF019800F0E1F803B00CBC91469A46F0BDC0F1FF0FC1F1FF0FC2F1FF0FC3F1FF0FC4F1FF0FC5F1FF0FC6F1FF0FC7F1FF0FC8F1FF0F50
:403B8000C9F1FF0FCAF1FF0FCBF1FF0FCCF1FF0FCDF1FF0F304700002CFF0B4028FF0B401CFF0B4020FF0B40034B1868C0231B02184000D00120704700010B4010B500F015
:403BC000A5F8044A1368C02109020B43136000F0A1F810BD00010B4010B500F097F808490A68084B1A408024E40122430A600A6813408022120213430B6000F08BF810BD88
:403C000000010B40FF3FFFFF70B5050000F07EF80400FFF7C9FF002803D0FFF7DDFF012100E0002108482840084A1568084B2B40184310601368012901D1FFF7BFFF20005F
:403C400000F068F870BDC0460404040010020B40FBFBFBFF10B5244B1B685B0715D5234B1B685B070ED5224BD969042001401F4C22688A432260DA698243DA611B69002BE5
:403C800000D098470420FFF7BFFF174B1B685B0518D5164B1B685B0510D5154BD9698022D2001140114802688A430260D969114A0A40DA615B69002B00D098478020C000A9
:403CC000FFF7A2FF084B1B685B030CD5074B1B685B0304D5064B9B69002B00D098478020C002FFF791FF10BD10020B40E804002090060020FFFBFFFF0230800804D0C0467D
:403D00000138FDD1C046C046C0467047EFF3108072B6704780F310887047C04610B5AD4B1B68002B00D09847AB4B1B68DB0702D50022AA4B1A60AA4B1B789B0628D5A94BA3
:403D40001B68DB0507D5A84A1188C0239B000B431380012300E00023A24A1268D20706D5A14A118890239B000B4313800123002B0FD09B4A1278D20701D5012200E00222B3
:403D80009949088802430A800021954A117000E00023934A1278920600D414E1914A1268D20611D51022914B1A608D4B1B78DB0701D5012300E002238B4A11880B43138040
:403DC0001022874B1A7004E1854A1278120720D5844A126892070AD50222844B1A60824A118888239B000B431380012311E07C4A1278D20703D52521794A117009E0242162
:403E0000774A11707A4A1268002A02D01439794A1160734A1278520700D4ABE0704A1278D20749D5744A1268120727D5734A1268734909680F240C40724909686418141B44
:403E4000082C09D8002C16D16F4A11686F4B0B401360012308340EE008240CE0694A11686B48006841186B480068C0B20870116801311160013C002CF0D119E05E4A126804
:403E8000520715D55F4A116861480068411861480068C0B208701168013111601168574A1268914203D204215B4A116000E001235A495B4A11605DE04A4A1268920726D509
:403EC00002224A4B1A6057490B680D321A40096880231B020B4000D001239B18524A1168CB1A13601268514B1A603F4A118884239B000B4313804E4B1A68802149020A432A
:403F00001A6019684B4A0A401A60012332E04A4A1268D20612D424E0434A1168344A1268914211D2404A11684448006841180978C9B243480160116801311160394A126822
:403F40000F210A40082AE7D1374A1168284A1268914202D14021274A11603A493A4A116008E0354A1268520604D52F4B1A682F4B1A600123002B2CD0234A1168234B0B40AA
:403F800013600023314A13601A4A1360304B1B789B070ED5124B1B78DB0701D5092300E00A23114A11880B43138060220C4B1A700FE0284B1B689B0601D5182200E0102252
:403FC000154B1A6005E0064B1B78DB0601D4FFF779F910BD800500208C0E0740880E0740B70600200C0F0740C4060020000F0740C0060020880F0740CC0F0740D006002075
:4040000008030740D406002060000740FFFEFFFFC80600204003074068000740ED0F0000C00F074008020740B8060020BC06002004020740FFFFFEFF8C0F0740D806002020
:4040400040020740F3070000800F0740C80F0740CC06002064000740014B18687047C0464C0500200E4B70B500251E000D4CE41AA410A54204D0AB00F35898470135F8E7C1
:4040800000F06EFB084B00251E00084CE41AA410A54204D0AB00F35898470135F8E770BD6C4700006C4700006C47000074470000002310B59A4203D0CC5CC4540133F9E77A
:4040C00010BD03008218934202D019700133FAE770470023C25C0133002AFBD1581E70470000000074657374206C696E652031202E2E2E00326E64206C696E65202E2E2EC9
:40410000000000007363726F6C6C00000021007F2200070000AED580A83FD300408D142000A1C8DA1281CFD9F1DB40A4A6AF000000000000003E5B4F5B3E3E6B4F6B3E1CA8
:404140003E7C3E1C183C7E3C181C577D571C1C5E7F5E1C00183C1800FFE7C3E7FF0018241800FFE7DBE7FF30483A060E2629792926407F050507407F05253F5A3CE73C5A51
:404180007F3E1C1C08081C1C3E7F14227F22145F5F005F5F06097F017F006689956A606060606094A2FFA29408047E040810207E201008082A1C08081C2A08081E101010D9
:4041C000100C1E0C1E0C30383E3830060E3E0E06000000000000005F00000007000700147F147F14242A7F2A12231308646236495620500008070300001C224100004122EE
:404200001C002A1C7F1C2A08083E080800807030000808080808000060600020100804023E5149453E00427F400072494949462141494D331814127F1027454545393C4A17
:4042400049493141211109073649494936464949291E0000140000004034000000081422411414141414004122140802015909063E415D594E7C1211127C7F494949363EBF
:40428000414141227F4141413E7F494949417F090909013E414151737F0808087F00417F41002040413F017F081422417F404040407F021C027F7F0408107F3E4141413EF3
:4042C0007F090909063E4151215E7F09192946264949493203017F01033F4040403F1F2040201F3F4038403F631408146303047804036159494D43007F4141410204081064
:4043000020004141417F04020102044040404040000307080020545478407F284444383844444428384444287F385454541800087E090218A4A49C787F0804047800447D29
:4043400040002040403D007F1028440000417F40007C047804787C080404783844444438FC1824241818242418FC7C08040408485454542404043F44243C4040207C1C204A
:4043800040201C3C4030403C44281028444C9090907C4464544C4400083641000000770000004136080002010204023C2623263C1EA1A161123A4040207A38545455592130
:4043C000555579412254547842215554784020545579400C1E5272123955555559395454545939555454580000457C410002457D420001457C407D1211127DF0282528F096
:404400007C545545002054547C547C0A097F4932494949323A4444443A324A4848303A4141217A3A42402078009DA0A07D3D4242423D3D4040403D3C24FF2424487E4943F0
:40444000662B2FFC2F2BFF0929F620C0887E090320545479410000447D413048484A32384040227A007A0A0A727D0D19317D2629292F28262929292630484D4020380808A5
:40448000080808080808382F10C8ACBA2F102834FA00007B000008142A142222142A1408AA005500AAAA55AA55AA000000FF00101010FF00141414FF001010FF00FF101027
:4044C000F010F0141414FC001414F700FF0000FF00FF1414F404FC141417101F10101F101F1414141F00101010F0000000001F101010101F10101010F010000000FF101028
:4045000010101010101010FF10000000FF140000FF00FF00001F10170000FC04F414141710171414F404F40000FF00F714141414141414F700F7141414171410101F101FF2
:40454000141414F4141010F010F000001F101F0000001F14000000FC140000F010F01010FF10FF141414FF141010101F00000000F010FFFFFFFFFFF0F0F0F0F0FFFFFF00F2
:4045800000000000FFFF0F0F0F0F0F3844443844FC4A4A4A347E02020606027E027E0263554941633844443C04407E201E2006027E020299A5E7A5991C2A492A1C4C720196
:4045C000724C304A4D4D303048784830BC625A463D3E494949007E0101017E2A2A2A2A2A44445F444440514A444040444A51400000FF0103E080FF000008086B6B083612A7
:40460000362436060F090F06000018180000001010003040FF0101001F01011E00191D1712003C3C3C3C00000000000000300F40000400400F400004820D010116051C0C7E
:4046400022012D012E02300832023401360437013E104030410545D046024710482649FF4AFF4BFF4DA04F04501852805405580459045A045B045F01604062C064406540F1
:4046800066C068C06AC06CC06EC00D080F02168017401D081E081F8226402F023F0245084F81568057415E885F0177408780C2A0C490CA10CE80D040D210D6D0630287015F
:4046C000D640E6100101100101000F4028320F4019330F4004410F4002600F40000400000004000000040000000400000102030401400002000C02000801008002000202C8
:40470000000302001002001402000E02000D02000F02000102004002002402000602000430313233343536373839414243444546030405060708090A0B0C0E0F1011121355
:404740001415161718191B1C1D1E1F2021222325262728292A2B2E2F3031323334354300F8B5C046F8BC08BC9E467047ED20000065310000F8B5C046F8BC08BC9E46704785
:40478000C520000098470000C800002088040000A80100000000000000000000400000000000000000000000000000000000000000000000000000000000000000000000D8
:4047C00000000000000000000000000000000000000000000000000000000000000000000000000000000000000000000000000000000000000000000000000000000000B9
:404800000000000000000000000000000000000000000000000000000000000000000000000000000000000000000000000000000000000000000000000000000000000078
:404840000000000000000000000000000000000000000000000000000000000000000000000000000000000000000000000000000000000000000000000000000000000038
:4048800000000000000000000000000000000000000000000000000000000000000000000000000000000000000000000000000000000000000000000000000000000000F8
:4048C00000000000000000000000000000000000000000000000000000000000000000000000000000000000000000000000000000000000000000000000000000000000B8
:404900000000000000000000000000000000000000000000000000000000000000000000000000000000000000000000000000000000000000000000000000000000000077
:404940000000000000000000000000000000000000000000000000000000000000000000000000000000000000000000000000000000000000000000000000000000000037
:4049800000000000000000000000000000000000000000000000000000000000000000000000000000000000000000000000000000000000000000000000000000000000F7
:4049C00000000000000000000000000000000000000000000000000000000000000000000000000000000000000000000000000000000000000000000000000000000000B7
:404A00000000000000000000000000000000000000000000000000000000000000000000000000000000000000000000000000000000000000000000000000000000000076
:404A40000000000000000000000000000000000000000000000000000000000000000000000000000000000000000000000000000000000000000000000000000000000036
:404A800000000000000000000000000000000000000000000000000000000000000000000000000000000000000000000000000000000000000000000000000000000000F6
:404AC00000000000000000000000000000000000000000000000000000000000000000000000000000000000000000000000000000000000000000000000000000000000B6
:404B00000000000000000000000000000000000000000000000000000000000000000000000000000000000000000000000000000000000000000000000000000000000075
:404B40000000000000000000000000000000000000000000000000000000000000000000000000000000000000000000000000000000000000000000000000000000000035
:404B800000000000000000000000000000000000000000000000000000000000000000001E000000010000000000E02EC05D00001800000000366E010404040000000000E2
:404BC000000000000000000000000000000000000000000000000000000000005E470000000000000000000000000000000000000000000000000000000000000000000010
:404C000000000000000000000000000000000000000000000000000000000000EC040020000000000000000000000000000000000000000000000000000000000000000064
:404C40000000000000000000000000000000000000000000000000000000000000000000000000000000000000000000000000000000000000000000000000000000000034
:404C800000000000000000000000000000000000000000000000000000000000000000000000000000000000000000000000000000000000000000000000000000000000F4
:404CC00000000000000000000000000000000000000000000000000000000000000000000000000000000000000000000000000000000000000000000000000000000000B4
:404D00000000000000000000000000000000000000000000000000000000000000000000000000000000000000000000000000000000000000000000000000000000000073
:407FC00098111F00003D000000802D0000000000000000000000000000000000000000000000000000000000000000000000000000000000000000000000000000000000CF
:0200000490303A
:02000000910A63
:0200000490402A
:200000000000000000000000000000000000000000000000000000000000000000000000E0
:0200000490501A
:0C000000000204C81193110104DFA29D4E
:0200000490600A
:0100000001FE
:00000001FF