:400000000010002011000000190200001902000080B500AF00F06EFA00F008F980B500AF104B104A12688021C9020A431A60202001F016FB0C4B0D4A1A600D4B10221A6068
:400040000C4B802212061A60064B802212031A60094B0A4A1A600A4B00221A60C046BD4680BDC04600010B4004010B40060000800802024008010B4000000240160000807A
:400080000C020B4080B582B000AF72B6FB1D00221A7022E0FB1D1A7813005B009B185B00294A9B183B603B681A78597809020A43997809040A43DB781B06134318003B68AE
:4000C0001A795B791B0213439BB2190000F08EF8FB1D1A78FB1D01321A70FB1D1B78012BD8D91A4BEE2212021A60194B99221A60184B992212041A60174B992212041A604C
:40010000164A164B1B78DBB206210B43DBB21370134B08221A60134BC02212011A60124BD82212011A60114B02221A60104B31221A60104B02221A60FFF770FF00F066F8D8
:40014000C046BD4602B080BD581D00000C0001401000014000500F4030500F4000700F4000000440080004400803044000040440080404401804044010B5064C2378002B93
:4001800007D1054B002B02D0044800E000BF0123237010BD5801002000000000541D0000084B10B5002B03D00749084800E000BF07480368002B00D110BD064B002BFBD0A2
:4001C0009847F9E7000000005C010020541D0000D00000200000000080B500AF62B6002000F0ACF800F02AF9FEE7C04680B582B000AF786039603A687B680021180001F07E
:400200009CFDC046BD4602B080BDC04680B500AFC046BD4680BDC04680B500AF01F058FD03001B680C2B00D1FEE7FEE780B586B000AF224B7B61224B3B61204B7B6135E0AD
:400240003B691B68FB603B695B68BB603B699B683B6000237B600CE0FB681A68BB681A60BB680433BB60FB680433FB607B6804337B607A683B689A42EED13B69DB683B60CB
:4002800000237B6008E0BB6800221A60BB680433BB607B6804337B607A683B689A42F2D13B6910333B617B69013B7B617B69002BC6D101F013FDFFF78FFFFEE7010000007B
:4002C000201E000080B582B000AF00237B600FE07B68032B04D8144B7A689200D35800E0124B134A796889008B507B6801337B607B682F2BECD9FFF7C5FE0E4B00221A6051
:400300000D4B1B68002B02D10B4B00221A608023DB058022D205126801210A431A60C046BD4602B080BDC046000000001902000000000020C8000020C000002080B584B029
:4003400000AF0200FB1D1A700F4B1B68DAB20F23FB1808218A431A70FB1D1B78DB00DBB208221340D9B20F23FB180F22BA1812780A431A70044B0F22BA1812781A60C046DC
:40038000BD4604B080BDC0460000044080B584B000AF78600A00BB1C1A800E23FB1800221A8012E0BB1C1B88013B7A68D3181B7899B20E23FB180E22BA1812888A181A8025
:4003C000BB1C1A88BB1C013A1A80BB1C1B88002BE8D10E23FB181B885B429BB21800BD4604B080BD80B586B000AFF860B9607A601723FB1800221A70FB68002B14D00020AD
:4004000001F020FA10E07B68013B7B60FA68BB68D2187B68D3181B78D9B21723FB181722BA1812788A181A707B68002BEBD11723FB181B781800BD4606B080BD90B583B02E
:4004400000AF06237B60002000F086F8031E01D100237B601E4B1B681B68C03BFC1C1A00C0210020FFF7BEFF03002370194B1B681A78FB1CF91C09788A1A1A70FB1CFA1CE3
:40048000127852421A70134B1B681B78FA1C12789A4204D10E4B1B681B68002B02D1002001F0D0F90C4B1B68402B02D07B68002B05D0094B00221A60002000F0BBF81420B7
:4004C00000F0B8F800F00AF8C046BD4603B090BDD8000020D4000020C000002080B500AF034B80221A6001F0B9F9C046BD4680BDC000002080B582B000AF144B1B68102254
:40050000134002D1124B00221A60114B1B68802B17D1FB1D00221A700D4B00221A60FB1D1B781900022000F093FD031E09D0FB1D1B781900022000F08BFD0300180000F0A9
:4005400009F8C046BD4602B080BDC04600030B40C00000200047C04690B587B000AF0200FB1D1A70FB1D1B781900032000F070FD03000133DC01FB1D1B781900042000F002
:4005800067FD0300E318FB601323FB1800221A701223FB1800221A70FB1D1B781900032000F056FD03000133DB017B611FE07A690B23FB1812781A700B23FB181B78002B46
:4005C00008D00B23FB181B78FF2B03D01323FB1801221A701223FB181222B9180B22BA18097812788A181A707B6901337B617A69FB689A42DBD31223FB181222BA1812783D
:4006000052421A701223FB181C78FB1D1B781900012000F01DFD03009C4204D11323FB181B78002B01D1062300E000231800BD4607B090BD90B5DA4CA54400AF0200D94BCE
:40064000AA2189008C46BC4463441A70D64BFB1800221A80D54BFB180A221A70A8239B00FB1800221A70D24BFB1800221A8001F041F962B6CF4BFB1800221A70C94BAA223D
:4006800092009446BC4463441B78002B07D0C54BAA2292009446BC4463441B7800E0FF23A0229200BC1896225100AA225200B818220001F02FF90300A5229200BA18136013
:4006C000B84BAA2292009446BC4463441B78002B06D0B64BFB181A78B44BFB18013A1A70B24BFB181B78002B05D0A5239B00FB181B68002BC2D1A5239B00FB181B68002B89
:4007000001D000F016FCA0239B00FB181B88062B08D9A94BAA2292009446BC4463441B78012B04D0A34BFB1804221A7073E0A24BAA2292009446BC446344DB789BB21B02CD
:4007400099B29D4BAA2292009446BC4463449B789AB2954BFB180A431A80934BFB181B880733A0229200BA181288934207D88E4BFB181B88DA1D96235B009A4204D98D4BC1
:40078000FB1803221A7046E0874BFB181B880533894AAA2189008C46BC446244D35C9BB21B0299B2804BFB181B880433824AAA2080008446BC446244D35C9AB27F4BFB1878
:4007C0000A431A80784BFB181B8806337A4AAA2189008C46BC446244D35C172B04D0754BFB1804221A7016E06F4BFB181B8804339AB2AA235B00FB1811001800FFF7C6FD02
:4008000003001A006D4BFB181B88934203D0694BFB1808221A706A4BFB1800221A80654BFB181B78002B00D076E3664BFB18624AAA2189008C46BC44624412791A705D4BE3
:40084000FB1804221A705C4BAA2292009446BC4463445B78313B0A2B00D9BFE29A005A4BD3181B689F46A8239B00FB181B78012B00D042E34C4BFB181B88002B00D03CE31B
:400880000020FFF769FE03005A425341DBB21A00494BAA2189008C46BC4463441A71484BFB1801221A80434BFB1800221A7024E3A8239B00FB181B78012B00D01FE33A4BAF
:4008C000FB181B88012B00D019E33E4BFB181B78002B00D013E33D4B1B681B68DA0BA4239B00FB181A70374BFA18A4239B00FB1812781B789A420BD1344B1B681B68DB0971
:400900009AB2A7239B00FB18FF210A401A8014E02C4BFA18A4239B00FB1812781B789A4205D9A7239B00FB1800221A8005E0A7239B00FB18802252001A80A7239B00FB188F
:400940001B88DAB21C4BAA2189008C46BC4463441A71A7239B00FB181B881B0A9BB2DAB2154BAA2189008C46BC4463445A71124BAA2292009446BC446344FF229A710E4BB7
:40098000AA2292009446BC4463440022DA710C4BFB1804221A80074BFB1800221A70AEE254FDFFFF5FFDFFFFA2020000A10200009E020000A5020000ACFEFFFF92020000AD
:4009C000A6020000910200006C1D0000D8000020C14BAA2292009446BC4463445B78342B19D1A8239B00FB181B78012B00D093E2BA4BFB181B88032B00D08DE2B84BFB1879
:400A000080221A80B64BFB181A882823FB180021180001F092F9A8239B00FB181B78012B00D06EE2AD4BFB181B88022B00D868E2AB4BFB181B882822BA18D018A74BFB18A7
:400A40001B88DA1EAA235B00FB180733190001F06BF9A34BFA18A14BFB1812881B88D3189AB29F4BFB18033A1A809C4BFB1880221A809C4BFB18802252001A80984BFA18FE
:400A8000964BFB1812881B889A4200D070E0924BAA2292009446BC4463449B799BB21B0299B28D4BAA2292009446BC4463445B799AB28B4BFB180A431A80894BFA18894B23
:400AC000FB1812881B889A4201D2002200E00A22854BFB181A70844BFB181B78002B00D011E2824BFB181B789BB21B0299B2A3239B00FB187A4ABA1812888A181A807C4B2A
:400B00001B681B68DA097B4BFB181A80784B1B681B687F22134006D0764BFB181A88754BFB1801321A80A3239B00FA18714BFB1812881B889A4208D26B4BFB180A221A70FC
:400B4000674BFB1800221A80E6E1A3239B00FB181B882822BA181100180000F097FB031E01D00A2200E000225F4BFB181A7003E05D4BFB1803221A70594BFB1800221A8028
:400B8000BFE1A8239B00FB181B78012B00D0BCE1534BFB1800221A80CCE1A8239B00FB181B78012B00D0B2E14D4BFB181A884B4BFB181B88D3181A0096235B009A421ED8B7
:400BC000494BFB1800221A70454BFB181B882822BA18D018414BFB181A88AA235B00FB180433190001F0A0F83D4BFB183C4AB9183A4ABA18098812888A181A8087E13A4B67
:400C0000FB1803221A7082E1344BFB181B88002B26D1394BAA2292009446BC446344374A03CA03C3A8239B00FB1801221A70344BFB1808221A802A4BFB1800221A80304B86
:400C4000FB181A882023F918AA235B00FB180433180001F069F8244BFB1800221A705BE1214BFB1804221A7056E1A8239B00FB181B78012B00D04CE1184BFB181B88032B43
:400C800000D046E1144BAA2292009446BC4463449B799BB21B0299B20F4BAA2292009446BC4463445B799AB2164BFB180A431A800E4BFB181B781A02124BFB181B88D31869
:400CC000DB01A1229200BA1813600E4BFB181B88FF2B19D8002218E0ACFEFFFFA20200009E0200008E020000A502000091020000D80000209A02000078FDFFFF641D0000FC
:400D0000A60200008A0200000A22974BFB181A70954BFB181B78002B00D0FCE0934BFC18A1239B00FB181B68802219000020FFF759FB030023708E4BFB181B789BB21B02EC
:400D400099B28C4BFB188C4ABA1812888A181A80874BFB181B78002B1ED1864BFB181B88FF2B19D10021052000F072F90300DAB27E4BFB187D49791809788A1A1A70002160
:400D8000062000F065F90300DAB2784BFB187749791809788A1A1A70744BFB181B785B42DAB2764BAA2189008C46BC4463441A716D4BFB1800221A70714BFB1801221A80B0
:400DC000A7E00020FFF7C8FB031E02D16D4B80221A6000F097FD00F041FD9DE06A4B1B68002B00D183E0A8239B00FB181B78012B00D07CE0614BAA2292009446BC44634416
:400E00005A78624BAA2189008C46BC4463441A705E4BAA2292009446BC4463445C4ABA1812885A80594BAA2292009446BC446344AA225200BA1804325A600C23FB180C2295
:400E40000021180000F079FF524BAA2292009446BC446344AA225200BA1804329A604A4B1B680C22B9181822BA1810009847444BFB18484AAA2189008C46BC446244928809
:400E80001A803F4BFB181A882623FF339A420CD9404BAA2292009446BC4463449A68AA235B00FB1804339A420DD03A4BAA2292009446BC4463449B68002B0DD1304BFB1888
:400EC0001B88002B08D0284BFB180E221A702C4BFB1800221A800FE02E4BAA2292009446BC4463441A68204BFB181A7004E01E4BFB1805221A700FE00EE0C0460CE0C0460F
:400F00000AE0C04608E0C04606E0C04604E0C04602E0C04600E0C046194BFB181A88AA235B00F918104BFB181B78180000F036F800E0C046184BAA2292009446BC4463447E
:400F40001B78002B01D1FFF795FBA8239B00FB181B78012B01D1FFF78DFBC046BD46AB239B009D4490BDC046A50200009902000091020000820200008A020000ACFEFFFFA0
:400F8000A6020000C00000207401002070FDFFFFA202000064FDFFFF5FFDFFFF90B585B000AF39601100FB1D021C1A703B1D0A1C1A803B6801221A703B680133FA1D1278D9
:400FC0001A703B6802333A1D1288D2B21A703B6803333A1D1288120A92B2D2B21A703B1D1B8804339AB20E23FC183B6811001800FFF7CCF9030023803B1D1B8804333A6894
:40100000D3180E22BA181288D2B21A703B1D1B8805333A68D3180E22BA181288120A92B2D2B21A703B1D1B8806333A68D31817221A703B1D1B88073399B23A1D386896239D
:4010400000F0CEFC03001800BD4605B090BDC04680B586B000AF0200FB1D1A70BB1D0A1C1A701323FB1802221A700023FB60FB1D1B780C2B00D9A8E09A00774BD3181B68C8
:401080009F46BB1D1A7813005B069B1ADB01734A944663447B611323FB1801221A709AE0BB1D1A7813005B069B1ADB016C4A944663447B611323FB1804221A708BE0BB1D94
:4010C0001A7813005B069B1ADB01664A944663447B6180E0BB1D1A7813005B069B1ADB01614A944663447B611323FB1804221A7071E0BB1D1A7813005B069B1ADB015B4A17
:40110000944663447B611323FB1801221A7062E0BB1D1A7813005B069B1ADB01544A944663447B611323FB1801221A7053E0BB1D1A7813005B069B1ADB014E4A94466344FF
:401140007B6148E0BB1D1A7813005B069B1ADB01494A944663447B613DE0BB1D1A7813005B069B1ADB01454A944663447B6132E0BB1D1A7813005B069B1ADB01404A9446AF
:4011800063447B611323FB1804221A7023E0BB1D1A7813005B069B1ADB013A4A944663447B611323FB1801221A7014E0BB1D1A7813005B069B1ADB01334A944663447B612D
:4011C0001323FB1804221A7005E0002000F03AFB00237B61C0461323FB181B78012B03D17B691B78DBB2FB601323FB181B78022B0BD17B691B78DBB2FB607B6901331B789D
:40120000DBB21B02FA681343FB601323FB181B78042B1BD17B691B78DBB2FB607B6901331B78DBB21B02FA681343FB607B6902331B78DBB21B04FA681343FB607B690333AE
:401240001B78DBB21B06FA681343FB60FB681800BD4606B080BDC046981D0000C07F0000C17F0000C57F0000C97F0000D07F0000D17F0000D67F0000D27F0000D47F00004B
:40128000D87F0000DC7F0000E07F000090B5AFB000AF7860396000239422BA18136000239022BA1813600023A022BA1813600023B422BA1813600023B022BA18136000235C
:4012C000AC22BA1813600023A822BA1813607B68FF2B00D985E13B68002B00D181E139680823FB1808338022180000F01DFD0223A422BA1813602FE00823FB18A422BA1869
:4013000012689200D3589C22BA1813609C23FB181B68002B19D0AC23FB181A689C23FB181B68D318AC22BA181360A823FB181A689C23FB181B681343A822BA181360A42372
:40134000FB181B68B422BA181360A423FB181B680133A422BA181360A423FB181B68212BCAD9AC23FB181B68002B06D1A823FB181B68002B01D0012300E00023A022BA1855
:401380001360A023FB181B68002B11D00823FB18B422BA1812689200D358B022BA1813600823FB18B422BA18126892000021D1500823FB18904A1A600823FB187F225A60C2
:4013C0008E4B0822BA181A608D4B8E4A1A60C0468A4B1B681B0F1A07F0231B069A4204D1864B1B68FF2213400DE0844B1B681B0F1A07A0231B069A4204D0804B1B68FF2291
:40140000134000E000239422BA1813609423FB181B68002B00D0E8E09B23FC1800F01AFB0300237000F0F8F803009022BA1813609423FB181B68002B32D10823FB18724A8F
:401440001A600823FB181A687B681B041A430823FB181A60694B0822BA181A60684B6B4A1A60C046654B1B681B0F1A07F0231B069A4204D1614B1B68FF2213400DE05F4B6C
:401480001B681B0F1A07A0231B069A4204D05B4B1B68FF22134000E000239422BA1813609423FB181B68002B00D07DE0A023FB181B68002B00D177E00823FB1808338022C3
:4014C0000021180000F039FC0823FB18B422BA1812689200B02179180968D1500823FB18454A1A600823FB187F225A60434B0822BA181A60424B434A1A60C0463F4B1B681D
:401500001B0F1A07F0231B069A4204D13B4B1B68FF2213400DE0394B1B681B0F1A07A0231B069A4204D0354B1B68FF22134000E000239422BA1813609423FB181B68002B3E
:4015400032D10823FB18324A1A600823FB181A687B681B041A430823FB181A60274B0822BA181A60264B2B4A1A60C046234B1B681B0F1A07F0231B069A4204D11F4B1B6801
:40158000FF2213400DE01D4B1B681B0F1A07A0231B069A4204D0194B1B68FF22134000E000239422BA1813609023FB181B68002B10D100F043F803009022BA18136090237A
:4015C000FB181B68002B05D09023FB181B689422BA1813609B23FB181B78180000F03EFA03E004239422BA1813609423FB181B681800BD462FB090BDB6D7000008000040FF
:401600000400004004000080B6D8000005000080B6D900000600008080B582B000AF00237B60044B1A68044B1A607B681800BD4602B080BD08010B407801002080B582B0CB
:4016400000AF00237B60044A044B1B6813607B681800BD4602B080BD08010B407801002090B585B000AF78600C23FC1800F0F2F9030023707B68022B00D8AFE07B68302BE6
:4016800000D9ABE05C4B1B78DBB21A007B689A420AD35A4A0F23FB1812781A70584A0E23FB1812781A703FE0564B1B78DBB21A007B689A420AD3544A0F23FB1812781A70C5
:4016C000524A0E23FB1812781A702DE0504B1B78DBB21A007B689A420AD34E4A0F23FB1812781A704C4A0E23FB1812781A701BE04A4B1B78DBB21A007B689A420AD3484AA1
:401700000F23FB1812781A70464A0E23FB1812781A7009E0444A0F23FB1812781A70434A0E23FB1812781A707B68DA1E0B23FB183F498A5C1A700B23FB181B782F2B0DD98B
:401740007B682A2B0AD93B4B19221A60052000F077F90D23FB1819221A7007E0354B1B68DAB20D23FB183F210A401A700B23FA180D23FB1812781B789A4208D22D4B7A68E9
:40178000033A2B498A5C1A60052000F059F92A4B7A6826498C4662441278D2B21A60274B0F22BA1812781A60254B0E22BA1812781A60052000F08AF80B23FA180D23FB18E2
:4017C00012781B789A420CD91A4B7A68033A18498A5C1A60052000F033F902E0002000F031F80C23FB181B78180000F037F9C046BD4605B090BDC046C0F1FF0FC1F1FF0FCD
:40180000C2F1FF0FC3F1FF0FC4F1FF0FC5F1FF0FC6F1FF0FC7F1FF0FC8F1FF0FC9F1FF0FCAF1FF0FCBF1FF0FCCF1FF0FCDF1FF0FCC1D00002CFF0B4028FF0B401CFF0B4023
:4018400020FF0B4080B582B000AF0200FB1D1A7001BEC046BD4602B080BDC04680B500AF054B054A12681204120C04490A431A60C046BD4680BDC0460CED00E00400FA051A
:4018800080B582B000AF786009E00D4B1B68180000F0D6F87B680B4A944663447B607A6880231B029A42F0D8074B1B687A685343180000F0C5F8C046BD4602B080BDC046B6
:4018C000E80000200080FFFFE000002080B582B000AF0200BB1D1A80BB1D1B88044A12785343180000F0ACF8C046BD4602B080BDE400002080B500AF00F0CEF8C046BD46A4
:4019000080BDC04680B500AF00F0D8F8C046BD4680BDC04690B589B000AFF86008007A6019000A23FB18021C1A800923FB180A1C1A700123FB61FB68002B4BD00A23FB18A4
:401940001B88002B46D01023FB610923FB181A7813009B009B185B007B610023BB6100F0E7F8031E1BD000F0E3F80300BB61AD20FFF7ACFF00F0DCF80200BB699A42F2D190
:401980000A23FB181B88BA69934200D91300BB61BB699AB27B681A800023FB6108E00120FFF76EFF7B69013B7B617B69002BD6D100233B610AE0FA683B69D41800F0A8F88F
:4019C0000300DBB223703B6901333B613A69BB699A42F0D3FB691800BD4609B090BDC04680B586B000AFF86008007A6019000A23FB18021C1A800923FB180A1C1A700123E7
:401A00007B61FB68002B13D00A23FB181B88002B0ED00A23FB181A88FB681100180000F0ADF87B680A22BA1812881A8000237B617B691800BD4606B080BDC046000000005E
:401A40000230800804D0C0460138FDD1C046C046C0467047EFF3108072B6704780F310887047C04680B500AF00F0A2F8C046BD4680BDC04680B500AF064B064A126880218F
:401A800009060A431A6000F02DF800F031F8C046BD4680BD0000064080B500AF064B1B78002B04D1FFF7DEFF034B01221A70FFF7E1FFC046BD4680BD7C01002080B500AF63
:401AC00000F01EF8054B054A1268520052081A60034B00221A60C046BD4680BD00000640880F064080B500AFC046BD4680BDC04680B500AF00F0BAF8C046BD4680BDC0464C
:401B000080B500AF00F0CAF8C046BD4680BDC04680B582B000AF00237B60044B1B687B607B681800BD4602B080BDC0464003064080B582B000AF054B1B680F2213407B603E
:401B40007B681800BD4602B080BDC0460803064080B582B000AF7860C046064B1B680F221340082BF9D0044B7A681A60C046BD4602B080BD080206404002064080B584B0F5
:401B800000AF786039600023FB6009E07A68FB68D3181B781800FFF7DBFFFB680133FB60FA683B689A42F1D3C046BD4604B080BD80B500AF1A4B1B4A1A601B4B00221A6038
:401BC0001A4B1B4A1A601B4B1B4A1A601B4B07221A601B4B00221A601A4B01221A601A4B154A1A60194B00221A60194B00221A60184B00221A60184B00221A60174B00228F
:401C00001A60174B00221A60164B00221A60154B1B689AB2144B1A80C046BD4680BDC046000006400B000002400006404800064001000A000003064007000080040306402C
:401C400010030640440006400002064004020640880E0640C80E0640480F0640080F0640C80F0640880F06407E01002080B500AF074B074A1268F0218A4390210A431A600B
:401C8000044B054A12881A60C046BD4680BDC04610000140880F06407E01002080B500AF084B084A1268F0218A431A60064B1B689AB2E423DB0013409AB2044B1A80C0466E
:401CC000BD4680BD10000140880F06407E010020014B18687047C046500100200E4B70B500251E000D4CE41AA410A54204D0AB00F35898470135F8E700F080F8084B00258C
:401D00001E00084CE41AA410A54204D0AB00F35898470135F8E770BD081E0000081E0000081E0000101E0000002310B59A4203D0CC5CC4540133F9E710BD030082189342E3
:401D400002D019700133FAE77047000085000000001F00000000000000300F40000400400F4000049311C804113C010166080000B0080000DC0D0000D0090000820B00004E
:401D8000DC0D00009A0B0000080C0000D00900006A0C0000C20D0000CA11000082100000A0100000BE100000D4100000F210000010110000441100002E1100005A11000072
:401DC000701100008E110000AC110000030405060708090A0B0C0E0F101112131415161718191B1C1D1E1F2021222325262728292A2B2E2F3031323334354300F8B5C04620
:401E0000F8BC08BC9E467047A1010000C5020000F8B5C046F8BC08BC9E46704779010000301E0000D00000208800000028000000000000004C1D0000501D00000024F4000A
:401E4000803E0000100000000000401F010000000000000000000000000000000000000000000000000000000000000000000000FA1D00000000000000000000000000001D
:401E8000000000000000000000000000000000000000000000000000000000000000000000000000000000000000000000000000F000002000000000000000000000000012
:401EC00000000000000000000000000000000000000000000000000000000000000000000000000000000000000000000000000000000000000000000000000000000000E2
:401F000000100020111F0000FD2A0000FD2A000010B5024B83F3088800F010FE0010002070B5164C23688022D20213432360182001F006FA2268124B13402360114A124BAE
:401F40001A601022114B1A601032114B1A6082221206104B1A60002525600F4A0F4B1A600F4A104B1A601049092001F08FF9092001F076F90D4B1D6070BDC04600010B4059
:401F8000FFFFFBFF0600008004010B400C0202401C02024008010B4002000080000002401600008040000240513500000C020B4010B572B600240FE01B486200131959004A
:401FC0000B00411889881A5AC31858880004104300F070FD0134E4B2012CEDD9134A144B1A6099231B04134A1360134A1360134A117806230B43DBB213701E23104A13609F
:40200000104A13600322104B1A60104A104B1A600222104B1A602E320F4B1A60FFF780FF00F05EFD10BDC04640660000EEEE00000C00014020500F4030500F4000700F40CE
:40204000000204401802044000030440A40D000008030440000404400804044010B5064C2378002B07D1054B002B02D0044800E000BF0123237010BD6005002000000000E7
:402080000C610000084B10B5002B03D00749084800E000BF07480368002B00D110BD064B002BFBD09847F9E700000000640500200C610000C80000200000000010B504002E
:4020C000012001F05DF8002803D0200001F06CF800E0014810BDC0460F270000F0B5474680B488B062B662B600F08AFD01F02EF801F080FA3C2000F0F9FA00F0B1FA00F046
:40210000BDFA012600242AE0201C02F03BFC05B200F004FB0700211C201C01F059FE0290380002F051FC029902F0A6FA071C00F0FBFA0290381C02F025FC02B2012333403E
:402140000093029B2900280000F09CFB00F096FA731CDEB24C49201C01F03AFE041C00F0DDFAC30F1818401000B202F02DFC011C201C01F005FE0028C6D1FA20C00001F0E1
:40218000BDF800F0F3FF012000F0E2FA042000F0D7FA0023984600F063FA00F06FFA0220FFF78CFF060003F09DFA04000D00300003F056FA02000B002000290002F0C6FE4C
:4021C0000022324B02F048FC03F014FA0300304D06AC32002900200003F06CFB31B2022000F0F8FF061C03F0B5FA02900391301C02F0C8FB060003F033FA02000B0002985E
:40220000039902F0A3FE0022204B02F025FC03F0F1F9030004AF32002900380003F04AFB002323713B71200001F0E6F901F0F2F9380001F0E1F901F0EDF90021002000F037
:4022400079FA144800F020FC200000F02BFC002001F006FA2021002000F06CFA0E4800F013FC380000F01EFC4346012B02D10023984601E00123984600F000FAFA20C000BD
:4022800001F03CF887E7C046000040400000594010610000186100001C61000083B27F2B3FD800293DDB3F293BDC012A04D0002A14D0022A24D034E0CB17072213405B183D
:4022C000DB10DB011818174B0133181807231940063B8B4002781343037022E0CB17072213405B18DB10DB0118180E4B0133181807231940063A8A4003789343037010E087
:40230000CB17072213405B18DB10DB011818054B0133181807231940063B8B400278534003707047CC000020F0B5474680B406AC258890426FD1CF17072637407F18FF1068
:40234000FF013818494F01373818DC173440E418E410E401A218BA18040059E084421BD1434E0E4004D5013E08277F423E430136F6B2B046F618761AF6B2062E00D9072679
:402380004746F61B01360127B7403E00013E4746BE40F6B2B44610E094420ED1344E1E4004D5013E08277F423E43013636B20127B7403E00013EF6B2B446844201D09442A7
:4023C00015D1012D04D0002D07D0022D0AD01EE0277866463743277019E027786646B743277014E027786646774027700FE0012D04D0002D05D0022D06D008E0FF2727708F
:4024000005E00027277002E02778FF43277080349442A3D926E0CB17072423405B18DB10DB011C18114B01331B19121A9A180720014006388840C4B212E0012D04D0002D0E
:4024400006D0022D08D00AE019782143197006E019788143197002E019786140197001339342EAD904BC9046F0BDC046CC0000200700008010B50023CA5E144B1B78022BFF
:402480000CD0032B19D0012B1FD10024035F0B800F4B1B889A1A013A028016E00023C25E0B4B1B889B1A013B03800023CA5E094B1B889B1A013B0B8007E00023C45E054BAE
:4024C0001B881B1B013B0B80028010BDC2050020C0050020C405002070B584B008AC24880E256D44288003AD29800A2169440A8002A90B80904208D02B000021595E02ABA8
:4025000000255B5F994200D080E0414B1B78012B01D0032B1CD1002878DB3E4B00215B5E984273DA002A71DB9A426FDA03AB00229B5E002B6ADB384A0021525E934265DA3A
:4025400002AB00215B5E002B60DB9A421CDC5DE003AB00215B5E002B58DB2E490025495F8B4253DA02AB00255B5F002B4EDB99424CDD00284ADB284B00215B5E984245DAC2
:40258000002A43DB9A4241DA0E266E4403A93000FFF770FF0A256D4402A92800FFF76AFF0022B35E00216A5E934207D102A90020085E03A90025495F884209DB03A90020B6
:4025C000085E02A90025495F88420ED193420CDD0E2169440A800A226A44138003AA0023D15E02AB18881080198002AB00229B5E0A226A440021525E03A90020095E0E207A
:4026000068440025405F0094FFF78EFE04B070BDC2050020C4050020C005002070B505000C000E4B187800230A00290000F034FC00F0A8FB8307FBD500F0A4FB830505D40C
:4026400000F09AFB844203D0FF2402E0FF2400E0002400F0AFFB200070BDC0467C05002010B5054C601C8022D200002103F019F94023237010BDC046CC00002000B583B0B9
:4026800007220749684603F003F907216846FFF7C5FF04490448FFF7C1FF03B000BDC0462061000001040000CC0000200A4B18800A4B19800A4B58809980002209490A702E
:4026C000DA801A8101329A72012149429981D981054B1A707047C046C0050020C40500207C050020C2050020C605002000B589B0084B187040218020FFF7D8FF1A2206498B
:40270000083101A803F0C4F81A2101A8FFF786FF09B000BD7C05002020610000014B0220185E70477C050020014B0420185E70477C050020014BD880198170477C05002001
:40274000002800D10130014B987270477C050020014B9881D88170477C05002070B582B014006B46D88001AB198000281ADB0E4B02229B5E984215DA0BB2002B12DB0A4A2D
:402780000421525E93420DDA01AE6B469D1D31002800FFF76FFE0023F15E0023E85E2200FFF77CFD02B070BD7C050020F0B55F4656464D464446F0B485B005000E001700C0
:4027C0000EAA12880292B84201D0994207D1029A00923A0031002800FFF77EFE4AE05A1AD11752184A4090463A1AD11752184A409146904504DD3A001F001300350006008E
:40280000BD4205DD32001E0013002A003D0017007A1B92B2934614B29A1BD11752184A409246E20F141964109E4202DA012303931EE001235B4203931AE0C84505DD029A13
:4028400029003000FFF78AFF04E0029A31002800FFF784FF5346E41AA3B21CB2002C05DA039A9446664436B25B441CB201352DB2BD42E2DD05B03CBC90469946A246AB46E5
:40288000F0BDC046F0B54F464646C0B483B005000E00170098460AAB1B88994690450FDC0C001EE04346F318013B1BB24A460092220031002000FFF779FF013424B200E064
:4028C0000400EB199C42EDDB0FE0EA19013A12B24B460093230021002800FFF767FF013424B24346F3189C42EFDB03B00CBC90469946F0BDF0B55F4656464D464446F0B482
:4029000085B081468A46039298460EAB1B889B460FAB1E783A4B02229B5E834268DD384B04229B5E8B4263DD7200921953004B44012B5DD4F3005344012B59D4002755E0D5
:40294000052F09D0039A930094466344FB182D4AD31824229D5C00E0002500244346B8461F003CE0EB071AD5012E09D15346E11809B24046484400B23A00FFF7EFFE2BE0D7
:40298000B0B232B221004143514409B243465843484400B200971300FFF774FF1CE05F451AD0012E09D15346E11809B24046484400B25A46FFF7D2FE0EE0B0B232B2210008
:4029C0004143514409B243465843484400B25B4600931300FFF756FF6D08013464B2072CC0DD3B004746984601377FB2052FA7DD05B03CBC90469946A246AB46F0BDC046CA
:402A00007C0500202061000030B583B00A2808D11B4B9A7AD200198952181A810022DA802CE00D282AD0164CE3890822A15E0622A55EA27A0192A289009202002800FFF7F9
:402A400059FFA27A90B2410041184D00E388EB181BB2E3800B49097800290FD09100521A5100074A0224125F51188B4206DD044BC0001A89801818810022DA8003B030BDF0
:402A80007C050020C605002070B5060002F034FF0500002403E0305DFFF7B6FF0134AC42F9D370BD10B5FFF7EFFF0A20FFF7ACFF10BDC04610B50A00002102F0F2FE10BDF4
:402AC000064B1B68002803D080221206134301E05B005B08014A13607047C04680031A4010B51E23034A1360034A13600120FFF7E7FF10BD00031A4040031A4010B502F0FF
:402B00009BFE03680C2B00D1FEE7FEE710B50300084A1068C318084A9A1A802A02DC054A136005E002F088FE0C2303600120404210BDC046D00400200806002070B50F4EF9
:402B40000F4D13E029686B68AC68002202E001C901C30432A242FAD1E868002202E0002102C304328242FAD11035013E002EE9D102F068FEFFF7B2FAFEE7C04601000000C6
:402B8000EC67000010B500230AE0032B03D89A000C49505800E00C4899000C4A885001332F2BF2D9FFF704FA094B1B68002B02D10022074B1A608022D205116801230B43E1
:402BC000136010BD001F0000FD2A000000000020C000002010B50B2000F042FB10BDC04610B500F01DF810BD10B5044A1368802109060B431360FFF7EDFF10BD00000740D3
:402C000010B5064B1B78002B04D1FFF7E9FF0122024B1A70FFF7E8FF10BDC0468C05002010B51B4A11680C230B4313600024194B1C60194A194B1A60194B1A4A13601A4A3B
:402C400014601A4A14601A4A13601A4B1C600B2000F010FB03210B2000F02AFB16490B2000F014FB154B1C60154B1C60154B1C60154B1C60154B1C60154B1C601022154B83
:402C80001A70154B1C80154B1C60154B1C6010BD7000074000000740C70800806000074007010080000307400403074010030740000207400402074035370000C80E07407C
:402CC000880E0740480F0740080F0740C80F0740880F0740C7050020D4050020E4050020CC05002010B5144A13685B005B081360002312490B6012490B6012480468124981
:402D00002140016011490B6011490B601149124B19601249124B19601249134B19601349134B19601021134B19701368802109060B43136010BDC0460000074068000740B4
:402D40006C00074060000740FF5CFFFF880F0740C80F0740F3070000800F0740ED0F0000C00F0740FF0F0000400F074017030000000F0740C7050020014B18687047C04639
:402D8000CC05002010B50B2000F074FA074B1C88A2B21400064B1B789B0602D504231A4394B20B2000F05CFA200010BDD4050020C705002010B50B2000F05CFA044B1C88E4
:402DC000A4B200221A800B2000F04AFA200010BDD405002070B52B4B1B6820251D402A4C03E0012000F0A2FA013C00F01DFA002801D1002CF5D1002C43D0002000F01CFA21
:402E0000224A13680F218B431360214A13685B005B081360002D18D0002000F00DFA032000F084FA012000F007FA032000F07EFA154C03E0012000F079FA013C00F008FAD2
:402E4000002803D1002CF5D100E00F4C002C08D0002000F0F1F9032000F068FA01220D4B1A600B4A1368802109060B43136007490B680F229343013A13430B60012000F0A9
:402E8000DBF970BD64000740204E00000C0001400000074068000740F0B583B001900C0017001D00002917D02A4B1B78102B08D10B2000F0DFF9284B1B68DB070ED5082604
:402EC0000FE0244B1B78602B0AD1244A138808218B431380002604E0042602E0002600E00426002E2FD128221A4B1A7000231C4A13601C4A13601C4B1F601C4B1C60EAB201
:402F00001B4B1A70019B5C00FF231C40134A138802218B4313804023164A13601649174A11601421FF31164A1160164A1360EB0704D5FFF74FFF144B1C6004E0124B1C6098
:402F40000222124B1A600B2000F08AF9300003B0F0BDC046C705002064000740D4050020C8050020CC050020D0050020E8050020DC050020800F074017030000000F07406B
:402F8000080F0740880F0740400207406800074010B503210E2000F08BF944490E2000F075F90F22424B1A60424B1B68002B01DA414900E04149424A13680B431360414A64
:402FC000414B1A60414A424B1A600023414A1360414A42490A6042490A60424A1168802040020143116040490A6802430A603F4A13603F4A136001223E4B1A6002213E4B93
:4030000019603E4908683E4B034013430B603D4B1A60002447E03C49A2005058DC239B0103400919097C0B4338490B4038498C4662441360C30707D52C490A680123A340D8
:403040001B041B0C13430B60A3002F4A9B589B0707D527490A680123A3401B041B0C13430B60A300284A9B589A0502D58020C00001E080204001DB0504D463000021254A81
:40308000995203E04208630022495A52224B5843224B9C466044224900F074FD00B2A200204BD0500134032CB5D910BD1D32000020001A4080031A4070201013702000131D
:4030C00000001A40B500008004001A400000FF0718001A401C001A400400040010001A4014001A4000031A4040031A4028021A4038021A4018021A40000F1A4030001A409C
:40310000FFFFFFDF040F1A404C660000FFFDFFFF80001A40FC05002010270000E40C0000C8190000EC05002010B5074B1B68002B08DB054A1368802109060B4313600A2079
:4031400000F0F4F810BDC04600001A4010B5064B1B78002B04D1FFF71BFF0122024B1A70FFF7E2FF10BDC04694050020034A1368802149020B4313607047C04604001A40A0
:40318000020083070CD0074B1B680120184001D19307F8D4002804D00122024B1A6000E00020704710021A4010B50400032802D9002000F069F8032C07D8A400044B9C46F5
:4031C000644420680004000C00E0002000B210BD80011A4070B504000D00032802D9002000F052F862000A4BD05A00B2281A00B201F0EAFB074901F02BF9051CA400064BC7
:40320000E05801F0E1FB011C281C00F057FF70BDFC05002000002041EC050020014B1A681A60704710021A40024B1868400801231840704704030440044A1368DBB20121AC
:403240008B430840184310607047C04600030440024B1B68012018407047C046040304401F2318401E3B8340014A13607047C04600E100E01F2318401E3B8340014A1360B2
:403280007047C04680E100E001BE704770B504000D001F2802D90020FFF7F6FF1034A40080239B059C4664442068256070BDC04670B504000E00032902D90020FFF7E4FF0B
:4032C0001F2C02D90020FFF7DFFF03252540ED00063500F0B3F9A408A400074B9C46644421680323AB4099430B003100A9401943216000F0A7F970BD00E400E010B5040075
:4033000006E0084B586800F08FF9074B9C46644480231B029C42F4D8024B9868604300F083F910BDD40400200080FFFF10B5034B1B7B584300F078F910BDC046D4040020C7
:40334000F0B557464E46C0B483B0040000F076F90190E71E2D2F74D83F4B1B78DBB29C4208D83E4B1B78DBB29A463D4B1B78DBB2994631E03B4B1B78DBB29C4208D83A4BBD
:403380001B78DBB29A46394B1B78DBB2994623E0374B1B78DBB29C4208D8364B1B78DBB29A46354B1B78DBB2994615E0334B1B78DBB29C4208D8324B1B78DBB29A46314BDD
:4033C0001B78DBB2994607E02F4B1B78DBB29A462E4B1B78DBB299462D4BDE5D2F2E09D92A2C07D919222B4B1A60052000F01CF9192503E0274B1D683F231D40B54206D9CB
:40340000234BDA5D234B1A60052000F00DF91F4B9C4664442378DBB21F4A13601F4B52461A601F4B4A461A600520FFF77FFFB5420AD2174BDA5D174B1A60052000F0F4F81A
:4034400002E00020FFF720FF019800F0FBF803B00CBC91469A46F0BDC0F1FF0FC1F1FF0FC2F1FF0FC3F1FF0FC4F1FF0FC5F1FF0FC6F1FF0FC7F1FF0FC8F1FF0FC9F1FF0F37
:40348000CAF1FF0FCBF1FF0FCCF1FF0FCDF1FF0F606600002CFF0B4028FF0B401CFF0B4020FF0B40034B1868C0231B02184000D00120704700010B4010B500F0BFF8044A90
:4034C0001368C02109020B43136000F0BBF810BD00010B4010B500F0B1F808490A68084B1A408024E40122430A600A6813408022120213430B6000F0A5F810BD00010B40E0
:40350000FF3FFFFF70B5050000F098F80400FFF7C9FF002803D0FFF7DDFF012100E0002108482840084A1568084B2B40184310601368012901D1FFF7BFFF200000F082F82E
:4035400070BDC0460404040010020B40FBFBFBFF10B5244B1B685B0715D5234B1B685B070ED5224BD969042001401F4C22688A432260DA698243DA611B69002B00D098478D
:403580000420FFF7BFFF174B1B685B0518D5164B1B685B0510D5154BD9698022D2001140114802688A430260D969114A0A40DA615B69002B00D098478020C000FFF7A2FFC8
:4035C000084B1B685B030CD5074B1B685B0304D5064B9B69002B00D098478020C002FFF791FF10BD10020B40E804002098050020FFFBFFFF7047C04670B505000078012424
:4036000004E000F02DF8285D0134E4B20028F8D170BDC04610B50D2000F022F80A2000F01FF810BD000000000230800804D0C0460138FDD1C046C046C0467047EFF310804D
:4036400072B6704780F310887047C0460000000000000000000000000000000000000000FEB5494652465B460EB407462E4909688A462E4A12682E48022100F0F9F90300F1
:403680002A480068C0182A4900F0F2F906001F3EB346234A126801219140C9430C0001250026FFF7CBFF814651460B6823400B6058460430FFF7B8FF3800F04028409040F2
:4036C0000B68234003430B605846FFF7ADFF0136072EF1D900200130012090400B68234003430B6058460630FFF79EFF4846FFF7A9FFC046C046C0460EBC894692469B460D
:40370000FEBDC046C046C046C046C046C046C046C046C046C046C046C046C046C046C046F4040020F0040020EC040020E404002000C2010010B5AD4B1B68002B00D0984753
:40374000AB4B1B68DB0702D50022AA4B1A60AA4B1B789B0628D5A94B1B68DB0507D5A84A1188C0239B000B431380012300E00023A24A1268D20706D5A14A118890239B0030
:403780000B4313800123002B0FD09B4A1278D20701D5012200E002229949088802430A800021954A117000E00023934A1278920600D414E1914A1268D20611D51022914B07
:4037C0001A608D4B1B78DB0701D5012300E002238B4A11880B4313801022874B1A7004E1854A1278120720D5844A126892070AD50222844B1A60824A118888239B000B43B4
:403800001380012311E07C4A1278D20703D52521794A117009E02421774A11707A4A1268002A02D01439794A1160734A1278520700D4ABE0704A1278D20749D5744A1268B8
:40384000120727D5734A1268734909680F240C40724909686418141B082C09D8002C16D16F4A11686F4B0B401360012308340EE008240CE0694A11686B48006841186B48EE
:403880000068C0B20870116801311160013C002CF0D119E05E4A1268520715D55F4A116861480068411861480068C0B208701168013111601168574A1268914203D204210E
:4038C0005B4A116000E001235A495B4A11605DE04A4A1268920726D502224A4B1A6057490B680D321A40096880231B020B4000D001239B18524A1168CB1A13601268514B91
:403900001A603F4A118884239B000B4313804E4B1A68802149020A431A6019684B4A0A401A60012332E04A4A1268D20612D424E0434A1168344A1268914211D2404A116863
:403940004448006841180978C9B243480160116801311160394A12680F210A40082AE7D1374A1168284A1268914202D14021274A11603A493A4A116008E0354A1268520615
:4039800004D52F4B1A682F4B1A600123002B2CD0234A1168234B0B4013600023314A13601A4A1360304B1B789B070ED5124B1B78DB0701D5092300E00A23114A11880B4343
:4039C000138060220C4B1A700FE0284B1B689B0601D5182200E01022154B1A6005E0064B1B78DB0601D4FFF77DF910BD900500208C0E0740880E0740C70500200C0F0740D6
:403A0000D4050020000F0740D0050020880F0740CC0F0740E005002008030740E405002060000740FFFEFFFFD80500204003074068000740ED0F0000C00F074008020740A7
:403A4000C8050020CC05002004020740FFFFFEFF8C0F0740E805002040020740F3070000800F0740C80F0740DC05002064000740002243088B4274D303098B425FD3030A75
:403A80008B4244D3030B8B4228D3030C8B420DD3FF22090212BA030C8B4202D31212090265D0030B8B4219D300E0090AC30B8B4201D3CB03C01A5241830B8B4201D38B0362
:403AC000C01A5241430B8B4201D34B03C01A5241030B8B4201D30B03C01A5241C30A8B4201D3CB02C01A5241830A8B4201D38B02C01A5241430A8B4201D34B02C01A52410D
:403B0000030A8B4201D30B02C01A5241CDD2C3098B4201D3CB01C01A524183098B4201D38B01C01A524143098B4201D34B01C01A524103098B4201D30B01C01A5241C3085B
:403B40008B4201D3CB00C01A524183088B4201D38B00C01A524143088B4201D34B00C01A5241411A00D20146524110467047FFE701B5002000F0F0F802BDC0460029F7D047
:403B800076E7704703460B437FD4002243088B4274D303098B425FD3030A8B4244D3030B8B4228D3030C8B420DD3FF22090212BA030C8B4202D31212090265D0030B8B4210
:403BC00019D300E0090AC30B8B4201D3CB03C01A5241830B8B4201D38B03C01A5241430B8B4201D34B03C01A5241030B8B4201D30B03C01A5241C30A8B4201D3CB02C01A29
:403C00005241830A8B4201D38B02C01A5241430A8B4201D34B02C01A5241030A8B4201D30B02C01A5241CDD2C3098B4201D3CB01C01A524183098B4201D38B01C01A52418E
:403C400043098B4201D34B01C01A524103098B4201D30B01C01A5241C3088B4201D3CB00C01A524183088B4201D38B00C01A524143088B4201D34B00C01A5241411A00D2DF
:403C800001465241104670475DE0CA0F00D04942031000D34042534000229C4603098B422DD3030A8B4212D3FC22890112BA030A8B420CD3890192118B4208D389019211E6
:403CC0008B4204D389013AD0921100E08909C3098B4201D3CB01C01A524183098B4201D38B01C01A524143098B4201D34B01C01A524103098B4201D30B01C01A5241C30814
:403D00008B4201D3CB00C01A524183088B4201D38B00C01A5241D9D243088B4201D34B00C01A5241411A00D20146634652415B10104601D34042002B00D549427047634685
:403D40005B1000D3404201B5002000F005F802BD0029F8D016E770477047C0468446081C6146FFE71FB500F02FFB002801D40021C8421FBD10B500F0BBFA4042013010BD48
:403D800010B500F021FB002801DB002010BD012010BDC04610B500F017FB002801DD002010BD012010BDC04610B500F0C9FA002801DC002010BD012010BDC04610B500F08C
:403DC000BFFA002801DA002010BD012010BDC046F8B54A02430244004E00C50F240E28009B09360EC90F92098D4259D0A01B002800DC8DE0002E1AD1002A00D079E05A07DC
:403E000004D00F221A40042A00D004335A0138D50134FF2C00D189E028009B015B0AE4B25B02E4055B0A2343C0071843F8BDFF2CE5D08021C9040A431B2800DD89E016000B
:403E40002021C640081A8240511E8A4132439B1A5A0114D59B019E09300001F0CFFC05388640844265DC041B330020200134E340041BA640721E964100243343BFE75A073F
:403E8000BFD1DF082800FF2C2FD1002F00D187E08022D20313003B435B025B0AFF24BFE7A11B002949DD002E29D0FF2CA7D08026F60432431B2900DD8DE017002026CF405B
:403EC000711A8A40511E8A413A439B185A01D6D50134FF2C64D0012276491A405B080B4013438CE7031ECAD100207B025B0AE4B296E701380028AAD0FF2C9DD17FE7002AE1
:403F000000D17CE701390029DFD0FF2CD2D176E7002820D1601CC0B2012853DD80279E1AFF0437402FD0D61A0D0095E72800002376E7614B241A334061E700294DD1611C4E
:403F4000CEB2012E2FDDFF292AD09B185B080C0055E701227BE7002C1BD1002B5BD0C04300280CD0FF2E7ED01B2800DD92E01D002024C540201A8340581E83412B43D31A07
:403F800034000D0064E7002E00D065E700200024ABE7FF2E67D08024E40440422343E3E7FF2400233CE7002C61D1002B7ED0002A00D124E79B185A0100D460E73E4A0C00B0
:403FC00013401CE7002C1ED1002B2FD1002A66D013000D0013E7012277E7002C1FD1002B5AD0C94300290BD0FF2E50D01B295FDC1F002024CF40611A8B40591E8B413B4364
:404000009B18340062E7002B1CD1002A4AD013000D00FF24F3E6130034000D00EFE6FF2E35D08024E40449422343DFE7002A00D1E5E68027981AFF04074000D152E7D31ADA
:404040000D00DCE6FF24002A00D1D8E68020DB08C003034204D0D208024201D113000D00DB00FF24CBE61300FF240D00C7E6002B0DD0FF24002A00D1C1E68021DB08C9036A
:404080000B42EDD0D2080A42EAD11300E8E71300FF24B4E6012372E713003400AFE60027002022E780270020FF03F1E61300A6E60123A5E7FFFFFF7DFFFFFFFBF0B5564618
:4040C00044465F464D46F0B444024600C70F83B08846650A360EBA463DD0FF2E22D00023EC00802599469B46ED0425437F3E43465C025800DB0F640A000E984636D0FF28DE
:4041000030D080230021E400DB041C437F38301A0190484642460843724E800030587A4013008746002D44D108239946063B9B46DDE70122FF2000241A406402C305640AB6
:40414000D2071C431443200003B03CBC90469946A246AB46F0BD002D20D104239946033B9B46C4E7002C17D1022102E0002C0AD10121321A01924A4643460A435A48920001
:4041800082587B409746200001F038FB431F76309C4040420021BAE70321B8E7280001F02DFB431F9D4000237630464299469B469DE70C239946093B9B4698E780240022D1
:4041C000E403FF20B9E70024C2468B465A465346022AAED0032A7DD0012A31D1012200201A400024A9E70122101A1B2856DD1A4000200024A1E78023DB031D424BD18023B9
:40420000DB032B435C02640A3A00FF2095E76D016001854230D2019A0024013A01921B220127290064006D00002901DBA84201D82D1A3C43013A002AF3D16A1E95412C4389
:4042400001987F300028CEDD620704D00F222240042A00D00434220103D5244A019814408030FE2800DD64E70122A401640AC0B21A4062E72C00A9E72D1A1A220124CFE764
:404280006B02BCD500248023DB031C436402640A4246FF2051E71C42B3D1F4E721002022C140101A8440621E94410C43620704D00F222240042A00D00434620104D5012231
:4042C00001201A40002438E70122A401640A1A40002032E78023DB031C436402640A5246FF202AE790660000D0660000FFFFFFF7430270B542004C005D0AC30F4802120E00
:40430000460A240EC90FFF2A0FD0FF2C11D00120A24200D070BDB542FCD18B420DD0002AF8D12800431E9841F4E70120002DF1D1EBE70120002EEDD1E9E70020EAE7C046B9
:404340004302F0B542005D0AC30F4802440A4800120E000EC90FFF2A1FD0FF2822D0002A09D16E426E4100280FD1002C0DD10020002D09D005E0002801D1002C01D08B427D
:4043800013D0584201231843F0BD002EF7D048424141012049420843F6E7002DDDD002204042F1E7002CDAD0F9E78242E9DC04DBA542E6D80020A542E6D258424341012068
:4043C0005B421843E0E7C0464302F0B542004C005E0AC30F4802120E450A240EC90FFF2A17D0FF2C19D0002A0BD170427041002C17D0002807D048424141012049420843E1
:40440000F0BD002C13D08B4214D0584201231843F6E70220002EF3D1E3E70220002DEFD1E1E7002DE5D10020002EE9D0EDE7002DE9D1EAE7A242E8DC04DBAE42E5D800209A
:40444000AE42DDD25842434101205B421843D7E7F0B557464E4645464300E0B446028846760A1F0EC40F002F47D0FF2F25D0002380259A469946F600ED042E437F3F43464B
:4044800042465D02D20F5B006D0A1B0E904640D0FF2B39D080220020ED00D20415437F3BFB1842465746591C62408C4607430F2F5CD86F49BF00C9598F46002E45D10823CF
:4044C0009A46063B9946DAE7424602282DD0032800D1C3E0012800D0A2E0002500260240D4B27602ED05760A2E43E407264330001CBC90469946A246F0BD002E1AD10423DE
:404500009A46033B9946BAE72A00511E8A41901CC6E70120002DC3D0280001F06FF9431F76309D4043420020BAE70124FF2514400026D6E7300001F061F9431F9E40002335
:40454000763047429A46994699E70C239A46093B994694E780260024F603FF25C1E735004846B2E7350022004846AEE72904090C0800370C3604360C2C0C79437043674361
:404580007443060C64183619B14203D980214902884647440004000C310409188D01681E8541890E2943350CED19AD010D43290104D5012369081D4063460D4319007F3114
:4045C000002925DD680704D00F202840042800D00435280103D5274980330D401900FE29A3DC0124AD016E0A1440CDB279E78020C003064207D0054205D128434602760A01
:404600004446FF256DE706437602760AFF2568E70124611A1B2905DD14400025002660E76346CBE72E002023CE40591A8D406B1E9D412E43730704D00F233340042B00D034
:404640000436730104D5012401251440002648E70124B601760A1440002542E780260124F6032E437602760A1440FF2539E7C04610670000FFFFFFF7F8B54A024E004302FF
:404680004400240EC50F9B09360EC90F9209FF2E00D183E001204140A01BA9425CD0002800DC95E0002E1CD1002A00D081E05A0704D00F221A40042A00D004335A013BD531
:4046C0000134FF2C00D191E001209B015B0AE4B205405B02E4055B0AED0723432B431800F8BDFF2CE3D08021C9040A431B2800DD90E016002021C640081A8240511E8A4137
:4047000032439B1A5A0115D59B019E09300001F075F80538864084426CDC041B330020200134E340041BA640721E964100243343BDE70D005A07BCD1DF0801231D40FF2C06
:4047400033D1002F00D190E08022D20313003B435B025B0AFF24BCE700284FDD002E2ED0FF2CA4D08025ED042A431B2800DD97E016002025C640281A8240501E8241324371
:404780009B185A01D5D50134FF2C6DD001227B481A405B08034013430D0088E7002A00D07AE777E7031EC5D100257B025B0AE4B28FE701380028A4D0FF2C97D177E7002A79
:4047C00000D174E701380028DAD0FF2CCDD16EE7002821D1601CC0B2012858DD80279E1AFF0437402FD0D61A0D008FE701231D4000236EE7624B241A334058E7002851D1D3
:40480000601CC6B2012E33DDFF282DD09B185B0804004CE7012274E7002C1AD0FF2E1FD08024E404404223431B2800DD96E01D002024C540201A8340581E83412B43D31A22
:4048400034000D005EE7002E00D05FE700250024ABE7002B44D0C0430028F0D0FF2EE3D11300FF240D0022E70D00FF24002330E7002C5DD1002B7DD0002A00D117E79B1854
:404880005A0100D456E73E4A040013400FE7002C1ED1002B2FD1002A65D013000D0006E701226DE7002C1FD1002B59D0C04300280BD0FF2E4FD01B285EDC1D002024C540E9
:4048C000201A8340581E83412B439B18340058E7002B1CD1002A49D013000D00FF24E6E6130034000D00E2E6FF2E34D08024E40440422343DFE7002A00D1D8E68027981AEA
:40490000FF04074000D14DE7D31A0D00CFE6FF24002A00D1CBE68020DB08C003034204D0D208024201D113000D00DB00FF24BEE6002B10D0FF24002A00D1B8E68020DB084F
:40494000C003034203D0D208024200D11300DB000D00FF24ABE61300FF24A8E601236EE713003400A3E6002700251EE780270025FF03E9E613009AE60123A6E7FFFFFF7D05
:40498000FFFFFFFB4302590A4300C20F1B0E00207E2B0EDD9D2B0DDC802000040143952B0BDC9620C31AD9400B005842002A00D118007047034BD018FBE7963B99400B003E
:4049C000F3E7C046FFFFFF7F70B5002830D0C317C5185D40C40F280000F010FF9E231B1A962B0DDC9622D21A95406A02520AD8B25202C005520AE40702432243100070BD0E
:404A0000992B19DC9922D21A9540124A2A40690704D00F210D40042D00D00432510103D50C4B1A409F231B1A9201520AD8B2DFE7002400200022DBE705222E00121AB921EF
:404A4000D6402A00C91A8A40551EAA4135001543DBE7C046FFFFFFFBF0B55F4656464D464446F0B40D0399464E002B0B87B00700924680469B46760DCC0F002E69D06D4B4A
:404A80009E4235D05B468022DD001204430F13432B439B46C3009846674B00279C460023664401934A4615035000D20F53462D0B400D914600D176E05E4A90426CD08022DA
:404AC0005B0F120413435C4AED0094461D4353460022DB00604449463618701C6140029017430F2F00D9AFE05448BF00C759BF465B461F4300D088E000239B46984602336B
:404B000008270193CEE74946022A6AD0032A00D109E2012A00D0BBE111400022002300259046CCB200212D030A0D12052D0B1543434A1B0515401D436D00E4076D082543D3
:404B40004046290007B03CBC90469946A246AB46F0BD034352D05B46002B00D18AE1584600F04CFE03000B3B1C2B00DD7BE11D22D31A3A0001005D46DA4008398D40130046
:404B80008F402B439B46B8462E4B00279C46002360444642019385E752462A432CD100250023022297E752462A4321D0002D00D154E1280000F022FE03000B3B1C2B00DD4E
:404BC00046E11D21CB1A51460200D9405346083A954093400D431B4A944660444042002279E7012400220C40124B0025904699E70025002301226EE703226CE700239B4658
:404C000098460133042701934CE703230C27019348E700238025984600242D03054B81E75D464346019A6FE75D4643462100019A6AE7C046FF07000001FCFFFF506700008E
:404C4000FFFF0F80F30300004246120C91461A0C9446424617044A461B041B0C5A43604690464A4642431000039262461C003F0C7A437C4342440192220C9246019A52440D
:404C8000904506D98246802040028046C24450460390100C049048462404240C1204121905922A0C2D042D0C68432C00824648467C4350438146200C80465743574447449B
:404CC000BA4503D9802040028046C144380C3F04B84648442404240C01900498A044404404905846000C814658460404200C8246070048465F434C4643436046604364464D
:404D0000834650464443380C8446E4186444A34203D980235B029C46E34448463F04230C3F0C2404E419574668436F4384464D46504655434243380C814662444A445B44B9
:404D4000944503D9802040028446654403983F04834604983F0C8446E344C345804140428246100484460198674484466744A344BC46A345A4419946D44464428742BF41E4
:404D8000D4458041E144A04699459B417F424042C8440743120CBA18A045A4415F423B0064422343D71843467D19DB0D6D021D435B465A02059B1A43531E9A415B46DB0D85
:404DC0001A4343465B021343EA0107D501225C0813402343EA07029E13436D08574AB218002A4BDD580709D00F201840042805D0181D98429B415B42ED180300E80104D5E8
:404E00004F4A15408022D200B2184E48824200DDE7E60124DB08680718436D02530580462D0B5B0D0C407DE6802259461203114208D0154206D115432D0398462D0B4C46B5
:404E4000414B6FE65D4615432D032D0B3E4B69E603005546283B9D400023BCE6504600F0CDFC2030A8E60300283B9F400023BB46984689E600F0C2FC203073E60124A61A54
:404E8000382E07DD00220C4000230025904649E6029EA3E71F2E20DC20222C001800921BF040944093400443581E83411C43F540630709D00F232340042B05D023001C1D23
:404EC0009C4292415242AD182B021FD5012400220C4001230025904624E61F202C004042821AD440202E1CD04022961BB5402B43581E83410720234318400025002809D039
:404F00000F2200251A401C00042AD8D1230068076D022D0B0124DB08034398460C40002300E60025E3E780220124120315432D0398462D0B0C40044BF4E5C046FF0300002F
:404F4000FFFFFFFEFE070000FF070000F0B557464E464546E0B40E001100F20F9246C500420F180337037400400A4E0F7F0A3043CF4E17435A00640D520DDB0FC900B24274
:404F800000D1E5E001267340A61AB446534500D1AFE0002E00DC0DE1002A3AD103000B4300D0E4E06B0709D00F232B40042B05D02B1DAB42AD416D427F191D003B0200D439
:404FC00088E0BB4B01349C4200D110E13A00B94B51461A4001235007ED08520264050543120B640D0B400021280012030D0D120B64052D0515436208AF4CDB072C4014435F
:40500000640064081C4321001CBC90469946A246F0BDA74B9C42C5D080231B0418436346382B00DDFDE01F2B00DD30E1624620239B1A02009A40664690460A009940F2406B
:4050400046464B1E99413243114363460200DA40691A8D429B410D00BA1A5B42D71A3B0235D57A02530A98464346002B00D1C4E0404600F0C3FB0300083B1F2B00DDC5E0C9
:4050800020222900D21A4746D1409F400A009D403A439C4200DDC0E01C1B631C1F2B00DDE4E0202114002800C91AD8408C408D400443DA40681E854117002543002471E703
:4050C000424663461A4300D14CE2674645466B0700D069E7012351467807ED08FA080B40054373498C4238D012036405120B640D79E7002E00DC9AE0002A47D06C4A944246
:4051000000D14FE78022120410436246382A00DC08E10143481E81410022C9B24919D219A942BF410D007F42BF183A0200D442E15F4A0134944200D14EE101205D4A690888
:405140003A4028400843D507054357089A4629E706000E4300D017E714E72900114300D1F9E1802109030A431203120B3BE701235B429846C4446346002B72D1691A8D42E9
:405180009B413F1A5B42FF1A0D0068E702000A4300D107E7012252429046C4446246002A00D0E6E06918A942B6413F187642F7190D00BAE7002E00D080E0621C5205520DDB
:4051C000012A00DCF9E06A1A91464D45B6413A1A7642921B9046120200D499E04D1BA9428941C71B49427A1A90469A463CE752460123002513400022F5E6280000F0FEFAC3
:4052000020300300083B1F2B00DC39E72A002838824000259C4200DC3EE7264FE41A1740C0E60143481E81410022C9B210E7002E00D0F1E0621C94465205520D012A00DCEE
:40524000A0E01B4A944500D1C5E06918A94292413F185242D2194908D5070D4357086446A0E6134B9C4200D0D9E69BE611001F3CE1400C00202B00D180E04021CB1A9A4058
:4052800015436A1E95410027254300241FE763460200203BDA406346202B71D0402366469B1B98400143481E814111430022CFE6FF070000FFFF7FFFFFFF0F80002C48D0A3
:4052C000CA4CA24200D1A2E07442A1468024240427434C46382C00DDDBE01F2C00DD44E14E462024A41B3E00A640A246B0464C462E00E640B4464646644626435446A5401C
:405300006C1EA54134002C434D46EF400D1B28E04A4643464D461A4300D0A5E6002300240025DEE61F2A5ADC66462022921B060096409146B04662460E00D6404246164364
:405340004A4691404A1E9141020060463143C240E4E63C002C435AD0F443A146002C52D14D1BA9428941C71B49427F1A14009A4675E69E4A944200D0C7E613E600227FE73A
:4053800000208FE7002C00D0C8E03B002B4300D10FE103000B4300D104E66918A9429B413F185B42DF193B0200D41AE1904B0D001F406446F6E59A4689E63A002A43002C0F
:4053C0005CD1002A75D102000A4300D1CAE007000D009A46E6E564460022002581E662460600203AD6406246B046202A00D1B7E040226646921B904001434246481E814142
:40540000114300228AE6794CA24200D061E707000D0014009A46C5E5002C41D13C002C4378D0F443A146002C20D0704CA24271D04C46382C00DDB2E01F2C00DDBCE0202658
:40544000341BA2463C005646B4404E46A0462C00F440A446444666463443A4465446A54064466E1EB54125434C46E7406D188D4289413F184942CF19140056E6002A2FD1A0
:4054800002000A4300D184E007000D009A46574C88E53D436F1EBD41ECB200270D1B60E7524CA24236D0744280263604A1463743BEE702000A4300D174E56A1A90464545A4
:4054C000B6413A1A7642921B9446120200D4F7E54D1BA9428941C71B49427F1A9A4661E502000A433AD0ED087C072C438025FA082D032A4208D0C7082F4205D145072C002C
:405500003A009A46C9080C43670FD200E5001743364C47E507000D00140043E53A002A4343D002000A4319D0ED087C072C438025FA082D032A4207D0C6082E4204D1470758
:405540003C003200C9080C43D700620FE50017439A46264C26E50022002544E5234C21E5002049E700230025BBE54C463E00203CE6404C46B446202C31D040244E46A61BB8
:40558000B7403D436C1EA54164462C4300270D1BE7E6802200231203144C0025A1E53D436F1EBD410027EDB260E707000D000F4CF8E407000D00F5E44E463C00203EF44038
:4055C000A0464C46202C0ED040244E46A41BA7403D436F1EBD4144460027254346E70027CFE70D0073E50027F2E7C046FF070000FFFF7FFF0B0330B5134D1A0B4B005B0D25
:40560000C90F0024AB4211DD104CA34210DC8024640322430E4CE41A1F2C0CDD0D48C31ADA4013005C42002900D11C00200030BD094BCC18FAE7E040084CA44663449A4052
:4056400013000343EEE7C046FE0300001D0400003304000013040000FFFFFF7FEDFBFFFF70B5002830D0C317C4185C40C50F200000F0C4F8174B184A1B1AD21A1F2A18DDC2
:40568000164AD21A9440002224035B05240B5B0D0021100024030A0D1205240B1443104A1B0514401C436400ED0764082C43210070BD210091400A000B21081AC4405B0522
:4056C0002403240B5B0DE3E70025002300240022DEE7C0461E0400003304000013040000FFFF0F8070B5051E28D000F087F8154B154A1B1AD21A1F2A16DD2C00134A002553
:40570000D21A94405A052403240B520D002124030B0D240B1B0523430D4C1205234013435B002800590870BD0B212C00081AC440954024035A05240B520DE7E700220024CB
:40574000E4E7C0461E0400003304000013040000FFFF0F804200120E511C4302C9B270B55D0AC40F012915DDE02189008C466D071B0B6244002128000D0D2D052B431C4D49
:4057800052052B40520813435B00E4075B082343190070BD002A15D1002D1FD0280000F02DF80A281DDC0B232A001B1ADA4013000200153295400F4A1B03121A52051B0B96
:4057C000520DD7E7002D06D080221B0B120313436D07094ACEE7084A0023CBE700220023C8E703000B3B9D402B000025E3E7C046FFFF0F8089030000FF0700001C210123F9
:405800001B04984201D3000C10391B0A984201D3000A08391B09984201D30009043902A2105C40187047C04604030202010101010000000000000000014B18687047C04653
:40584000580500200E4B70B500251E000D4CE41AA410A54204D0AB00F35898470135F8E700F0B2FF084B00251E00084CE41AA410A54204D0AB00F35898470135F8E770BD2B
:40588000D4670000D4670000D4670000DC670000002310B59A4203D0CC5CC4540133F9E710BD03008218934202D019700133FAE7704700000EB410B59DB002A90290086129
:4058C0000B48822488604861012040421FABC881084804CBA400006801938C8100F076F80023029A13701DB010BC08BC03B01847FFFFFF7F580500200023C25C0133002AF5
:40590000FBD1581E70470000F0B58E6885B007000C00039201939E4243D890238A89DB001A423ED003250969236801985B1A029363695D43EB0F5D19029B6D1001331B1837
:40594000AB4200D91D00530510D52900380000F037FB061E14D0029A2169FFF799FFA289194B134080221343A38112E02A00380000F086FB061E0CD12169380000F0D4FA84
:405980000C23402201203B60A38940421343A38117E0029B2661F61826606561019EED1AA560019BB34200D21E0032000399206800F0A5FA0020A3689B1BA36023689E19C6
:4059C000266005B0F0BDC0467FFBFFFFF0B59FB0029005938B890F0016001B0610D50B69002B0DD1402100F0EBFA38603861002804D10C23029A01381360D8E040237B6195
:405A0000002306AD6B6120336B761033AB7634002378002B03D1A31B049312D003E0252BF9D00134F4E7A31B320039000298FFF76BFF431C00D1B4E06A69049B9446634441
:405A40006B612378002B00D1ABE00122002352426A6002A95432521801342B60EB60AB601370AB65534E21780522300000F03CFA002807D00123801B83402A6801341343FB
:405A80002B60EFE72B68DA0604D55322202102A8121811701A0704D553222B2102A81218117022782A2A03D0099B00200A210EE0059A111D12680591002A01DB099204E01E
:405AC0005242EA60022213432B6001340BE02278303A092A04D84B4301349B180120F6E7002800D0099323782E2B1ED163782A2B0AD1059B02341A1D1B680592002B01DA6D
:405B000001235B42079310E000230A201A0001346B6021783039092904D84243013452180123F6E7002B00D00792234E21780322300000F0D9F9002806D04023801B83400A
:405B40002A68013413432B60217806221B48661C297600F0C9F9002812D0194B002B06D10722059B073393430833059314E005AB00933A00134B2900029800E000BF07E052
:405B800005AB00933A000F4B2900029800F08AF80390039B013304D06B69039A9B186B6135E7BB890B985B0601D5012040421FB0F0BDC04692670000986700009C67000056
:405BC0000000000009590000F7B5170001938A680B6900900C00934200DA130022003B6043321278002A01D001333B6023689B0602D53B6802333B60062523681D401ED02B
:405C0000230043331B785A1E9341226892061CD53020E1184331087021005A1C45310978A2184332023311700FE022000123193201990098089EB047431C0ED00135E36824
:405C40003A689B1A9D42F0DBDAE72200019943320098089DA847431C02D10120404220E006232068E1683A6803400025042B03D18D1AEB43DB171D40A3682269934201DDBC
:405C80009B1AED180027BD420AD0220001231A3201990098089EB047431CDED00137F2E70020FEBDF0B58BB006920A0043320793059004920A7E0C00109B6E2A00D1ABE0E1
:405CC00011D8632A22D009D8002A00D1B5E0582A00D0C5E045310A70814A4FE0642A1DD0692A1BD0BCE0732A00D1AAE009D86F2A29D0702A00D0B3E0202209680A4322606B
:405D000037E0752A1FD0782A33D0A9E00E001A684236111D196013683370A4E021681A68080606D4490604D5111D19600023D55E02E0111D19601568002D3BDA2D23049AF1
:405D40006D42137036E021681A68080606D4490604D51568111D1960ADB202E0111D196015685F4B227E039308276F2A1DD00A271BE022007821453211705A4A1968039209
:405D8000081D226818600D68100602D4500600D5ADB2D30702D520231A4322601027002D03D1202322689A4322602300002243331A7002E00A274A4B03936368A360002B1E
:405DC00009DB0422216891432160002D05D1049E002B11D07BE0002D79D0049E28003900FDF7CCFE039B013E5B5C280033703900FDF73EFE051EF1D1082F09D12368DB074D
:405E000006D563682269934202DC3023013E3370049B9B1B23612BE009681A68080607D4490605D5111D19601368A28A1A8004E0111D1960136862691A600023049E2361E4
:405E400016E01A68111D1960166800216268300000F04AF8002801D0801B6060636803E0260042363270012323610023049A1370079B09AA00932100069B0598FFF7A4FE2B
:405E8000431C02D10120404227E02369320006990598079DA847431CF4D0236800259B070FD4099BE068984217DA180015E022000123193206990598079EB047431CE1D0E4
:405EC0000135E368099A9B1A9D42F0DBE9E72600039B42361B7833708EE70BB0F0BDC046A3670000B4670000C9B28218904204D003788B4202D00130F8E70020704710B554
:405F0000884202D98B18984201D3002305E09B1A013A08D3995C8154FAE7934203D0CC5CC4540133F9E710BD70B50500002944D00C1F2368002B00DAE418280000F0D8F81E
:405F40001E4A13681100002B02D16360146031E0A3420DD92268A018834203D118685B688218226063600C6024E0A24203D813005A68002AF9D11E689819A0420BD12168A9
:405F8000711858181960824214D110685268411819605A600EE0A04202D90C232B6009E021686018824203D1106852684118216062605C60280000F09CF870BDBC050020DD
:405FC000032370B5CD1C9D43083506000C2D01D20C2501E0002D01DBA94202D90C23336048E0300000F084F8234B1C681A002100002913D00B685B1B0DD40B2B02D90B6058
:40600000CC181EE08C4202D1636813601AE04B6863600C0016E00C004968E9E7174C2368002B03D1300000F051F820602900300000F04CF8431C18D00323C41C9C43A0422F
:406040000DD12560300000F054F8200007220B30231D9043C31A0ED05A42E2500BE0211A300000F033F8431CEBD10C233000336000F03FF8002070BDBC050020B805002081
:40608000F8B506000C001500002904D11100FFF797FF040018E0002A03D1FFF745FF2C0012E000F027F885420ED929003000FFF787FF071E07D021002A00FFF7E9FB21004B
:4060C0003000FFF731FF3C002000F8BD002370B5064C050008002360FCF718FD431C03D12368002B00D02B6070BDC04604060020704770470B1F1A68101F002A04DA891874
:4061000004390B68D01804387047000000000000252E32640000000041000000560000000021007F2200070000AED580A83FD300408D142000A1C8DA1281CFD9F1DB40A49F
:40614000A6AF000000000000003E5B4F5B3E3E6B4F6B3E1C3E7C3E1C183C7E3C181C577D571C1C5E7F5E1C00183C1800FFE7C3E7FF0018241800FFE7DBE7FF30483A060EC0
:406180002629792926407F050507407F05253F5A3CE73C5A7F3E1C1C08081C1C3E7F14227F22145F5F005F5F06097F017F006689956A606060606094A2FFA29408047E0487
:4061C0000810207E201008082A1C08081C2A08081E101010100C1E0C1E0C30383E3830060E3E0E06000000000000005F00000007000700147F147F14242A7F2A12231308DD
:40620000646236495620500008070300001C2241000041221C002A1C7F1C2A08083E080800807030000808080808000060600020100804023E5149453E00427F400072497D
:406240004949462141494D331814127F1027454545393C4A49493141211109073649494936464949291E000014000000403400000008142241141414141400412214080201
:40628000015909063E415D594E7C1211127C7F494949363E414141227F4141413E7F494949417F090909013E414151737F0808087F00417F41002040413F017F08142241E2
:4062C0007F404040407F021C027F7F0408107F3E4141413E7F090909063E4151215E7F09192946264949493203017F01033F4040403F1F2040201F3F4038403F631408142A
:406300006303047804036159494D43007F4141410204081020004141417F04020102044040404040000307080020545478407F284444383844444428384444287F38545466
:40634000541800087E090218A4A49C787F0804047800447D40002040403D007F1028440000417F40007C047804787C080404783844444438FC1824241818242418FC7C08AC
:40638000040408485454542404043F44243C4040207C1C2040201C3C4030403C44281028444C9090907C4464544C4400083641000000770000004136080002010204023CD6
:4063C0002623263C1EA1A161123A4040207A385454555921555579412254547842215554784020545579400C1E5272123955555559395454545939555454580000457C4181
:406400000002457D420001457C407D1211127DF0282528F07C545545002054547C547C0A097F4932494949323A4444443A324A4848303A4141217A3A42402078009DA0A034
:406440007D3D4242423D3D4040403D3C24FF2424487E4943662B2FFC2F2BFF0929F620C0887E090320545479410000447D413048484A32384040227A007A0A0A727D0D1946
:40648000317D2629292F28262929292630484D4020380808080808080808382F10C8ACBA2F102834FA00007B000008142A142222142A1408AA005500AAAA55AA55AA0000FD
:4064C00000FF00101010FF00141414FF001010FF00FF1010F010F0141414FC001414F700FF0000FF00FF1414F404FC141417101F10101F101F1414141F00101010F000003E
:4065000000001F101010101F10101010F010000000FF101010101010101010FF10000000FF140000FF00FF00001F10170000FC04F414141710171414F404F40000FF00F744
:4065400014141414141414F700F7141414171410101F101F141414F4141010F010F000001F101F0000001F14000000FC140000F010F01010FF10FF141414FF141010101F2B
:4065800000000000F010FFFFFFFFFFF0F0F0F0F0FFFFFF0000000000FFFF0F0F0F0F0F3844443844FC4A4A4A347E02020606027E027E0263554941633844443C04407E208D
:4065C0001E2006027E020299A5E7A5991C2A492A1C4C7201724C304A4D4D303048784830BC625A463D3E494949007E0101017E2A2A2A2A2A44445F444440514A444040443B
:406600004A51400000FF0103E080FF000008086B6B083612362436060F090F06000018180000001010003040FF0101001F01011E00191D1712003C3C3C3C000000000000D5
:4066400000300F40000400400F4000040006000000060000000600000006000001020304030405060708090A0B0C0E0F101112131415161718191B1C1D1E1F202122232571
:40668000262728292A2B2E2F30313233343500000E42000032410000F0410000C8410000F0410000BC410000F0410000C84100003241000032410000BC410000C84100000A
:4066C000744200007442000074420000F64100003241000032410000DC410000C6410000DC410000BC410000DC410000C64100003241000032410000BC410000C64100000F
:40670000744200007442000074420000804200006C450000CA440000CA440000C84400005E4500005E45000054450000C84400005E450000544500005E450000C8440000C6
:40674000644500006445000064450000EE450000484C0000084B0000084B0000064B0000204C0000204C0000124C0000064B0000204C0000124C0000204C0000064B000052
:40678000284C0000284C0000284C0000284E00004300232D302B2000686C4C0065666745464700303132333435363738394142434445460030313233343536373839616263
:4067C0006364656600000000F8B5C046F8BC08BC9E46704785200000852B0000F8B5C046F8BC08BC9E4670475D20000000680000C800002098040000A80000000000000015
:406800000000000040000000000000000000000000000000000000000000000000000000000000000000000000000000000000000000000000000000000000000000000018
:406840000000000000000000000000000000000000000000000000000000000000000000000000000000000000000000000000000000000000000000000000000000000018
:4068800000000000000000000000000000000000000000000000000000000000000000000000000000000000000000000000000000000000000000000000000000000000D8
:4068C0000000000000000000000000000000000000000000000000000000000000000000000000000000000000000000000000000000000000000000000000000000000098
:406900000000000000000000000000000000000000000000000000000000000000000000000000000000000000000000000000000000000000000000000000000000000057
:406940000000000000000000000000000000000000000000000000000000000000000000000000000000000000000000000000000000000000000000000000000000000017
:4069800000000000000000000000000000000000000000000000000000000000000000000000000000000000000000000000000000000000000000000000000000000000D7
:4069C0000000000000000000000000000000000000000000000000000000000000000000000000000000000000000000000000000000000000000000000000000000000097
:406A00000000000000000000000000000000000000000000000000000000000000000000000000000000000000000000000000000000000000000000000000000000000056
:406A40000000000000000000000000000000000000000000000000000000000000000000000000000000000000000000000000000000000000000000000000000000000016
:406A800000000000000000000000000000000000000000000000000000000000000000000000000000000000000000000000000000000000000000000000000000000000D6
:406AC0000000000000000000000000000000000000000000000000000000000000000000000000000000000000000000000000000000000000000000000000000000000096
:406B00000000000000000000000000000000000000000000000000000000000000000000000000000000000000000000000000000000000000000000000000000000000055
:406B40000000000000000000000000000000000000000000000000000000000000000000000000000000000000000000000000000000000000000000000000000000000015
:406B800000000000000000000000000000000000000000000000000000000000000000000000000000000000000000000000000000000000000000000000000000000000D5
:406BC0000000000000000000000000000000000000000000000000000000000000000000000000000000000000000000000000000000000000000000000000000000000095
:406C0000000000000000000008060020010000000000E02EC05D00001800000000366E010404040000040440040000000100000000000000000000000000000000000000E4
:406C4000000000000000000000000000000000009067000000000000000000000000000000000000000000000000000000000000000000000000000000000000000000001D
:406C800000000000000000000000000000000000F80400200000000000000000000000000000000000000000000000000000000000000000000000000000000000000000B8
:406CC0000000000000000000000000000000000000000000000000000000000000000000000000000000000000000000000000000000000000000000000000000000000094
:406D00000000000000000000000000000000000000000000000000000000000000000000000000000000000000000000000000000000000000000000000000000000000053
:406D40000000000000000000000000000000000000000000000000000000000000000000000000000000000000000000000000000000000000000000000000000000000013
:406D800000000000000000000000000000000000000000000000000000000000000000000000000000000000000000000000000000000000000000000000000000000000D3
:407FC000E1111F00003D000000004E0000000000000000000000000000000000000000000000000000000000000000000000000000000000000000000000000000000000E5
:0200000490303A
:020000009AABB9
:0200000490402A
:200000000000000000000000000000000000000000000000000000000000000000000000E0
:0200000490501A
:0C000000000204C81193110104E9AC3E99
:0200000490600A
:0100000001FE
:00000001FF